:020000040800F2
:10000000405000205D02000803250008AF210008D1
:1000100001250008CB080008E12A000800000000C4
:100020000000000000000000000000009D0100082A
:100030002D09000800000000F9010008152500083E
:1000400077020008770200087702000877020008AC
:10005000770200087702000877020008770200089C
:10006000770200087702000877020008770200088C
:10007000770200087702000877020008770200087C
:10008000770200087702000877020008F1080008EC
:10009000CD080008D9080008E50800082F09000865
:1000A000770200087702000877020008770200084C
:1000B000D5250008770200087702000877020008BB
:1000C000770200087702000877020008770200082C
:1000D00077020008992900087702000877020008D3
:1000E000770200087702000877020008770200080C
:1000F00077020008770200087702000877020008FC
:1001000077020008770200087702000877020008EB
:100110001527000877020008770200087702000818
:1001200077020008770200087702000877020008CB
:10013000770200087702000877020008210900080A
:10014000FD080008090900081509000877020008E1
:10015000770200087702000877020008770200089B
:10016000770200087702000877020008770200088B
:1001700077020008770200087702000800000000FC
:100180007702000877020008DFF80CD000F07AFB55
:10019000004800473D350008405000202C4B1968AE
:1001A0000868B0E8F04F80F30988BFF36F8F4FF015
:1001B000000080F3118870470000000008480068C4
:1001C000006880F308884FF0000080F3148862B65E
:1001D00061B6BFF34F8FBFF36F8F00DF00BF00BF6B
:1001E00008ED00E0DFF80C00016841F470010160E7
:1001F000704700BF88ED00E0EFF30980BFF36F8F19
:10020000134B1A681EF0100F08BF20ED108A20E96A
:10021000F04F106009B44FF0500080F31188BFF325
:100220004F8FBFF36F8F04F075F84FF0000080F32D
:10023000118809BC19680868B0E8F04F1EF0100F6B
:1002400008BFB0EC108A80F30988BFF36F8F704746
:1002500050000020EFF305807047000006488047FB
:1002600006480047FEE7FEE7FEE7FEE7FEE7FEE79B
:10027000FEE7FEE7FEE7FEE7C52500088901000866
:100280002DE9F05F0546002092469B4688460646CB
:10029000814640241BE0284641464746224600F05E
:1002A00029FA53465A46C01A914110D311461846AE
:1002B000224600F010FA2D1A67EB01084F4622463D
:1002C0000120002100F007FA17EB00094E41201E23
:1002D000A4F10104DFDC484631462A464346BDE826
:1002E000F09F40EA01039B0703D009E008C9121FF1
:1002F00008C0042AFAD203E011F8013B00F8013BE0
:10030000521EF9D27047D2B201E000F8012B491E0B
:10031000FBD270470022F6E710B513460A460446A2
:100320001946FFF7F0FF204610BD2DE9FE4F80462D
:1003300081EA0300C00F0C46009021F0004123F039
:100340000045B8EB0200A94105D24046214690463F
:100350001C460B46024623F00040104347D0270DB1
:10036000C7F30A00C3F30A510290401A01904028D3
:100370006BDAC3F3130040F4801B0098924620B15F
:100380000023D2EB030A63EB0B0B01985946C0F133
:100390004002504600F09FF906460D465046594629
:1003A000019A00F0B7F910EB08006141002487EAD8
:1003B000115284EAE7731A4340D0009A62B3019A5B
:1003C000012A4FEA075215DC001B61EB02014FF0D6
:1003D000004202EA0752CDE90042001C41F58011BB
:1003E00032462B4600F0EEF903B0BDE8F08F4046F0
:1003F0002146F9E7001B61EB0201001C41F5801367
:1004000000185B412018A2F5001747EB030140EAF2
:10041000D570B6196D4111E06D084FEA360645EA10
:10042000C0754FEA0752001B61EB0201001C41F549
:10043000801149084FEA30000019514132462B46DD
:1004400003B0BDE8F04F00F0AEB9009801224000C3
:100450000023D0EB020263EBE073009821464FEAE1
:10046000E074B8EB000061EB0401E9E783F00043BE
:100470005BE781F0004158E72DE9FE4F81EA030474
:1004800004F0004421F0004100944FF0000B23F0F1
:10049000004350EA01045ED052EA03045BD0C3F388
:1004A0000A54C1F30A552C44A4F2F3340194A0FB7E
:1004B0000254C1F3130141F48011C3F3130343F455
:1004C000801301FB024400FB034E840A970A44EAAE
:1004D000815447EA8357A4FB076802958D0A05FB00
:1004E00007854FEA932C04FB0C542705029D4FEA25
:1004F000065847EA1637B5EB08056EEB070C870E72
:10050000920E47EA811742EA8312A7FB0201B6EB7B
:100510000B0164EB00042B0D43EA0C335E1844EB33
:100520001C50DA465146E7FB0201C5F313044FEABB
:100530000B3343EA14534FEA0432019C43EA0603A7
:10054000A4F10C040294009CCDE900B400F03AF947
:1005500003B0BDE8F08F00200146F9E72DE9F04D2A
:1005600081EA030404F0004B21F0004514464FF0EB
:10057000000A23F0004150EA050220D054EA0102AB
:100580001DD0C5F30A570246C5F31303C1F3130088
:10059000C1F30A5640F4801543F48013A7EB060814
:1005A000101BD64608F2FD3873EB050002D308F1A4
:1005B000010801E092185B41B8F1000F03DA002056
:1005C0000146BDE8F08D00204FF4801106468446B8
:1005D0000EE0171B73EB050705D3121B63EB050336
:1005E00006434CEA010C49084FEA300092185B417F
:1005F00050EA0107EDD152EA030012D082EA04006A
:1006000083EA0501084305D0101BAB4106D2012245
:10061000002306E000224FF0004302E06FF00102E9
:1006200053101AEB06004CEB085110EB0A0041EB9B
:100630000B01BDE8F04D00F0B6B870B5C1F30A5239
:1006400001F000450024C1F3130140F2FF3341F4EF
:1006500080119A4201DA002070BD40F233439A4281
:10066000A2F2334203DC524200F044F800E0904032
:100670002C43F1D0404270BD00F0004230F0004009
:100680000AD0C10D01F56071C0F3160042EA0151B4
:10069000C20840071143704700200146704701F02F
:1006A000004330B421F0004150EA010206D00A0DA7
:1006B000A2F56072C1F31301002A02DC30BC0020F5
:1006C0007047440F44EAC104C100E01830BC00EB9D
:1006D000C25000F031B8202A04DB203A00FA02F1BF
:1006E000002070479140C2F1200320FA03F3194320
:1006F00090407047202A04DB203A21FA02F00021C2
:10070000704721FA02F3D040C2F120029140084321
:1007100019467047202A06DBCB17203A41FA02F02F
:1007200043EAE07306E041FA02F3D040C2F120024E
:1007300091400843194670470029A8BF7047401CE4
:10074000490008BF20F00100704710B4B0FA80FCE7
:1007500000FA0CF050EA010404BF10BC704749B124
:10076000CCF1200421FA04F411FA0CF118BF012194
:1007700021430843A3EB0C01CB1D4FEA00614FEA74
:10078000102042BF002010BC704700EBC350104443
:100790000029A4BF10BC7047401C490008BF20F0CE
:1007A000010010BC704710B5141E73F1000408DA84
:1007B000401C41F1000192185B411A4301D120F025
:1007C000010010BD2DE9F04D92469B4611B1B1FAE2
:1007D00081F202E0B0FA80F220329046FFF77BFF10
:1007E00004460F4640EA0A0041EA0B0153465A46C6
:1007F000084313D0114653EA010019D0C8F1400252
:100800005046FFF777FF05460E465046594642468A
:10081000FFF761FF084305D0012004E02046394678
:10082000BDE8F08D0020054346EAE0762C433743CF
:100830000A986305E40AA0EB08000022FD0A44EAD6
:1008400047540A3002D500200146E9E70105101996
:100850006941DDE9084500196941BDE8F04DA2E7AD
:100860000EB5C10F80EAE0700844CA07002140F2CB
:1008700033438DE80E000A460B46FFF7A3FF03B093
:1008800000BD0000064C074D06E0E06840F00103A3
:1008900094E8070098471034AC42F6D3FFF778FC91
:1008A000D84F0008F84F00080EB540F233410291CE
:1008B0000021CDE900110A460B46FFF783FF03B084
:1008C00000BD012002F070FEFBE7FEE7014800F0EA
:1008D00034B80000D4000020014800F02EB8000019
:1008E000D4000020014800F028B80000D400002007
:1008F000014800F022B80000D4000020014800F0B8
:100900001CB80000FC000020014800F016B80000F0
:10091000FC000020014800F010B80000FC0000209E
:10092000014800F00AB80000FC0000207047802059
:1009300000F0CCBA72B6FEE770472DE9F05F0546CD
:10094000006800244669D0F804908768D0F80CB09D
:10095000D0F810A0D0F81880F10748D0F90714D0CB
:1009600001218160B80703D5284600F027FA0CE082
:10097000780702D54FF4006407E0380702D54FF43A
:10098000805402E0284600F018FAF80516D52968C8
:100990004FF480708860B80503D5284600F010FA3F
:1009A0000CE0780502D544F4005407E0380502D580
:1009B00044F4804402E0284600F001FAF80316D51A
:1009C00029684FF480308860B80303D5284600F0CA
:1009D000F9F90CE0780302D544F4004407E0380349
:1009E00002D544F4803402E0284600F0EAF93007EA
:1009F00007D55FEACB6004D52968102044F4007461
:100A0000C86070074FF0080707D55FEA0B7004D580
:100A10002868C760284600F0CBF9B00706D52868DB
:100A2000C068800702D0284600F0C3F9700607D5D9
:100A30005FEACA6004D52968102044F48064086124
:100A4000B00607D55FEA0A7004D528680761284612
:100A500000F0B0F9F00606D528680069800702D0DA
:100A6000284600F0A8F9B00308D55FEAC96005D5AB
:100A7000296810204860284600F09EF9F00307D549
:100A80005FEA097004D528684760284600F09BF9A2
:100A9000300446D55FEA497040D5F00504D55FEAD9
:100AA000C87001D044F00104B00504D55FEA887035
:100AB00001D544F00204700504D55FEA487001D501
:100AC00044F00404300529D518F0700F26D008F042
:100AD0007000402815D006DC102809D020280AD044
:100AE000302816D10AE050280ED0602811D10EE02F
:100AF00044F008040DE044F010040AE044F020043F
:100B000007E044F0400404E044F0800401E044F4D1
:100B100080742868816921F070018161296804204E
:100B20004860002C05D0686A204368622846FFF7B9
:100B300003FFBDE8F09F70B5040003D094F82000D7
:100B400010B104E0012070BD204600F081F820685B
:100B5000016841F00101016000F0BCFA054605267C
:100B600004E000F0B7FA401B0A2811D8206840685A
:100B7000C007F6D02068016821F00201016000F092
:100B8000A9FA05460BE000F0A5FA401B0A2806D991
:100B9000606A40F40030606284F82060D2E7206828
:100BA00040688007EFD4207E0128206801683DD08E
:100BB00021F080010160607E01282068016838D042
:100BC00021F040010160A07E01282068016833D037
:100BD00021F020010160E07E0128206801682ED00C
:100BE00041F010010160207F01282068016829D0B0
:100BF00021F008010160607F01282068016824D08D
:100C000021F004010160D4E902010843D4E904128F
:100C1000114308436168491E08432168C8610020E8
:100C20006062012084F82000002070BD41F0800146
:100C3000C0E741F04001C5E741F02001CAE721F0DB
:100C40001001CFE741F00801D4E741F00401D9E7F2
:100C5000F0B587B0044614216846FFF75BFB4F4BA5
:100C60004F48DFF834E11968D4F800C04C4A022537
:100C70000326092710300024491CF4453CD1196093
:100C8000012907D1016841F000710160006800F09E
:100C900000700590106840F001001060106802AB11
:100CA00000F0010005904FF4C050CDE9000583E845
:100CB000D00069463B4800F015F9002202211320BC
:100CC00000F0B0FA132000F09FFA00220221142055
:100CD00000F0A8FA142000F097FA00220221152053
:100CE00000F0A0FA152000F08FFA00220221162051
:100CF00000F098FA16204BE0DFF8ACE0F44549D15B
:100D0000D0F800C04CF0806CC0F800C0D0F800C033
:100D100001290CF0806CCDF814C0196007D101686E
:100D200041F000710160006800F0007005901068EB
:100D300040F002001060106802AB00F00200059065
:100D40004FF44050CDE9000583E8D00069461748CC
:100D500000F0C8F8002205213F2000F063FA3F2090
:100D600000F052FA00220521402000F05BFA4020FA
:100D700000F04AFA00220521412000F053FA4120F8
:100D800000F042FA00220521422000F04BFA4220F6
:100D900000F03AFA07B0F0BD0064004018000020EF
:100DA0003038024000000240006800400004024069
:100DB000704770477047704770477047704770477B
:100DC00070477047704770472DE9F0410446876DC2
:100DD00000F080F9064694F835000025022806D078
:100DE0008020606584F834500120BDE8F0812068DF
:100DF000016821F0160101602068416921F080013D
:100E00004161206C08B9A06C20B12068016821F014
:100E1000080101602068016821F0010101600CE017
:100E200000F058F9801B052807D9202060650320B1
:100E300084F8350084F83450D7E720680068C0078C
:100E4000EED194F85C103F208840B860012084F80F
:100E5000350084F834500020C7E790F83510022997
:100E600003D08021416501207047052180F83510AD
:100E70000068016821F00101016000207047000056
:100E800010B580281CD1C305596A0E480022416163
:100E90005A620389012B0CD1C3880B4C5B1C9BB29B
:100EA00004EB4304C38024F8021C0478A34200D35B
:100EB000028140F60203994202D301210181C280DE
:100EC00010BD00001C00002004030020044910B5E0
:100ED0000A68024202D00860FFF7D2FF10BD00008E
:100EE000143C01402DE9F84FDFF8BCA10022012598
:100EF0000AF1040B03264FF00F090BF1040E00BF9B
:100F00000B6805FA02F42340A34270D10F7907F071
:100F10000307012F01D0022F16D187684FEA42083C
:100F200006FA08FC27EA0C07D1F80CC00CFA08FCFA
:100F30004CEA070CC0F808C04768A7430C79C4F313
:100F4000001494403C4344600C79E443A4070AD065
:100F5000C4684FEA420C06FA0CF7BC438F6807FAE4
:100F60000CF72743C7600C7904F00304022C12D15C
:100F7000D40800EB840CDCF820405707FF0E09FA78
:100F800007F824EA0804D1F8108008FA07F848EABC
:100F90000408CCF8208004684FEA420C06FA0CF7EB
:100FA000BC430F7907F0030707FA0CF727430760E4
:100FB0004C6814F4403F70D03C4C276847F480479D
:100FC0002760246822F0030704F480440094384C1E
:100FD00007EB040CDCF8084897074FEA177809FA82
:100FE00008F7BC43334FB84202D1002724E054E055
:100FF000314FB84201D101271EE0304FB84201D134
:10100000022719E02E4FB84201D1032714E02D4FDB
:10101000B84201D104270FE02B4FB84201D1052778
:101020000AE02A4FB84201D1062705E0284FB8420E
:1010300001D1072700E0082707FA08F72743CCF873
:101040000878DAF800405746D1F804C09C435FEABC
:10105000CC3C00D51C433C60DBF800405F46D1F837
:1010600004C09C435FEA8C3C00D51C433C60DEF826
:1010700000407746D1F804C09C435FEACC2C00D5F1
:101080001C433C60084F0C373C68D1F804C09C43BB
:101090005FEA8C2C00D51C433C60521C102AFFF4E4
:1010A0002FAFBDE8F88F0000003C014044380240FB
:1010B00000300140000002400004024000080240ED
:1010C000000C0240001002400014024000180240D0
:1010D000001C02400148806870470000400000206A
:1010E00070B5040004D094F83D00002510B106E06E
:1010F000012070BD84F83C50204600F005FF2420FC
:1011000084F83D002068C16821F40051C160204688
:1011100001F0A0FB2068016921F490410161206881
:10112000416921F0220141612068416941F00801D3
:1011300041612068C16841F40051C16025642020EC
:1011400084F83D0084F83E00002070BD02488168AC
:101150000278114481607047400000200B4810B5B0
:10116000016841F400710160016841F4806101602F
:10117000016841F480710160032000F073F80F20D2
:1011800000F006F800F024F8002010BD003C0240FA
:1011900070B50D4D04464FF47A712878B1FBF0F02C
:1011A0000A490968B1FBF0F000F00EFB48B9102CB9
:1011B00007D200222146501E00F034F800206C6057
:1011C00070BD012070BD0000400000204C000020D8
:1011D0000C4882B0016841F480410160006800F46D
:1011E000804000900748001F016841F08051016075
:1011F0000068002200F0805000900F21901E02B085
:1012000000F010B844380240002809DB00F01F024B
:10121000012191404009800000F1E020C0F8001158
:1012200070470000F0B40E4B1B680C46C3F302235A
:10123000C3F10705042D00D90425191D072901D282
:10124000002300E0DB1E012606FA05F1491E2140BD
:1012500099409E40761E16403143F0BC01F059BCC7
:101260000CED00E0064900F0070208684FF6FF03A6
:10127000184040EA0220034A10430860704700000B
:101280000CED00E00000FA052DE9F0470E460500E0
:1012900065D0DFF81481D8F80000F7B200F007003D
:1012A000B04207D288F80070D8F8000000F00700BC
:1012B000B04254D128683D4C810712D5400703D570
:1012C000206840F4E05020602878000703D52068AB
:1012D00040F4604020602068A96820F0F0000843D6
:1012E00020602878C0072DD0304968680839012867
:1012F00012D0022813D0032811D0096889070029C9
:101300002DDA216821F0030101432160FFF7E2FE9D
:10131000814641F2883A0EE009688903EFE70968DF
:101320008901ECE7FFF7D6FEA0EB0901514502D990
:101330000320BDE8F0872068696800F00C00B0EB7E
:10134000810FEFD1D8F80010404601F00701B142FB
:1013500007D90770006800F00700B04201D00120F3
:10136000E7E72878400705D52068E96820F4E050D1
:10137000084320602878000706D52068296920F4F2
:10138000604040EAC100206000F038F82168084A57
:10139000C1F30311515CC840064908600648006863
:1013A000FFF7F6FE0020C4E7003C02400838024088
:1013B000484E00084C000020440000200448054925
:1013C00000680968044AC1F38221515CC840704733
:1013D0004C00002008380240584E000804480549D7
:1013E00000680968044AC1F34231515CC840704743
:1013F0004C00002008380240584E0008154810B52F
:10140000006810F00C02144813D04110042A0FD0C9
:10141000082A0ED10F4C241F2268236802F03F02D5
:101420005B0207D52068C0F38810A0FB010106E02D
:10143000084610BD2168C1F38811A1FB00010023FB
:10144000FEF71EFF2168C1F30141491C4900B0FBB2
:10145000F1F010BD083802400024F4002DE9F84FE7
:1014600004006ED02078DFF84C93C007A9F1040582
:101470004AD009F104000168C1F38101012908D0B3
:101480000068C0F3810002280AD1D9F800004002A8
:1014900006D52868800337D560680028E1D033E09E
:1014A0006068B0F5803F10D0B0F5A02F286810D04C
:1014B00020F480302860286820F48020286060684C
:1014C000A8B1FFF707FE06460DE0286840F480301B
:1014D000F4E740F480202860F7E700BFFFF7FAFD4B
:1014E000801B642873D828688003F7D50CE0FFF7C9
:1014F000F1FD064605E000BFFFF7ECFD801B642808
:10150000F0D828688003F7D42078DFF8AC82800711
:101510004FF0000A3ED5A748001D016811F00C0FDE
:1015200008D00068C0F3810002280BD1D9F8000070
:10153000400207D42868800716D5E068012800D14A
:1015400012E033E1E068B8B10120C8F80000FFF70D
:10155000C1FD064605E000BFFFF7BCFD801B022869
:10156000C0D828688007F7D52868216920F0F800DE
:1015700040EAC10028600DE0C8F800A0FFF7AAFD0E
:10158000064604E0FFF7A6FD801B02281FD8286846
:101590008007F7D42078000722D5864F87486169F5
:1015A000703771B101210160FFF794FD064604E038
:1015B000FFF790FD801B022809D838688007F7D50F
:1015C0000EE0C0F800A0FFF785FD064605E082E0CA
:1015D000FFF780FD801B02287DD838688007F7D48C
:1015E0002078400768D5DFF8CCB100270BF13C0B21
:1015F000DBF80000C0000BD4DBF8001041F0805194
:10160000CBF80010DBF80000012700F080500090BC
:101610006B4E3068C00510D4306840F48070306084
:10162000FFF758FD009005E0FFF754FD0099401AC0
:10163000022850D83068C005F6D55E4EA0686C36DA
:1016400001280FD00528306810D020F0010030604C
:10165000306820F004003060A068B8B1FFF73AFDB0
:1016600000900FE0306840F00100F4E740F0040023
:101670003060F7E7FFF72EFD0099411A41F28830FC
:10168000814266D830688007F4D50EE0FFF722FD6E
:10169000009007E0FFF71EFD0099411A41F28830E3
:1016A000814256D830688007F4D42FB1DBF800109F
:1016B00021F08051CBF80010A069C8B33D49091D45
:1016C0000968C1F3810102294AD00228504607D097
:1016D000C8F8600000E03CE0FFF7FCFC04463BE09B
:1016E0004746C8F86000FFF7F5FC064605E000BF76
:1016F000FFF7F0FC801B02282BD828688001F7D464
:10170000D4E907010843A16A2E4A490802EB0141C6
:10171000626A41EA8211084394F82C1040EA0161A0
:10172000C9F8001001203866FFF7D4FC044606E033
:101730003EE000BFFFF7CEFC001B022809D8286856
:101740008001F7D534E000BFFFF7C4FC001B02287E
:1017500002D90320BDE8F88F28688001F4D427E07F
:101760000128F7D0D9F80000E26900F48001914225
:101770001CD1226A00F03F01914217D147F6C07197
:10178000626A0140B1EB821F10D1A26A4FF0FF33B1
:1017900000F4403103EB5202B1EB024F06D194F852
:1017A0002C1000F07060B0EB016F01D00120D1E788
:1017B0000020CFE70438024000004742800E474235
:1017C000007000400000FFFF10B5401EB0F1807FA8
:1017D00001D3012010BD4FF0E02460610F2160179C
:1017E00001F097F90020A06107202061002010BDC2
:1017F0007047704770B590F83C20012A32D0012420
:1018000080F83C40022280F83D2003685A689D68B9
:1018100022F070060A6832435A60134B02689A42FB
:1018200014D0B2F1804F11D0104B9A420ED0104B11
:101830009A420BD00F4B9A4208D00F4B9A4205D0D8
:101840000E4B9A4202D00E4B9A4204D1496825F0C1
:1018500080031943916080F83D40002180F83C10DE
:10186000084670BD022070BD000001400004004029
:1018700000080040000C004000040140004001400E
:101880000018004010B5040003D094F83D0010B1DA
:1018900007E0012010BD002084F83C00204600F045
:1018A0001FF8022084F83D00211D206800F098FEFA
:1018B000012084F8460084F83E0084F83F0084F854
:1018C000400084F8410084F8420084F8430084F822
:1018D000440084F8450084F83D00002010BD00005D
:1018E00008B50068B0F1804F12D10A48016841F094
:1018F000010101600068002200F001000090052154
:101900001C20FFF78FFCBDE808401C20FFF77CBCC3
:1019100008BD00004038024090F83D10012901D078
:1019200001207047022180F83D100168CA6842F02A
:101930000102CA6000681149884214D0B0F1804F9A
:1019400011D00F4988420ED00E4988420BD00E4963
:10195000884208D00D49884205D00D49884202D0FE
:101960000C49884204D1816801F00701062903D09F
:10197000016841F001010160002070470000014052
:101980000004004000080040000C0040000401403A
:10199000004001400018004070B5044690F83C003B
:1019A0000025012817D0012684F83C60022084F825
:1019B0003D002068826822F0770222F47F42826034
:1019C0000868502838D00DDC20284FD005DC90B3B3
:1019D000102811D14AE0022070BD302846D040289E
:1019E0000AD13BE060282FD070280DD0B0F5805F81
:1019F00003D0B0F5005F12D0012584F83D600020CF
:101A000084F83C00284670BDCB68D1E901212068EC
:101A100000F04AFE2068816841F0770109E0CB6858
:101A2000D1E90121206800F03FFE2068816841F47F
:101A300080418160E1E719E0CA684968206800F0E8
:101A400045FE5021206806E0CA684968206800F019
:101A50004EFE6021206800F031FECEE7CA6849687A
:101A6000206800F033FE40212068F4E72268014638
:101A70001046F0E7704770B50446006801694FF002
:101A80000005C943890715D4C168C943890711D422
:101A9000E91E0161012020772068806980072046C7
:101AA00002D0FFF7E7FF04E000F098F8204600F0CE
:101AB00096F8257720680169C943490717D4C1689A
:101AC000C943490713D46FF0040101610220207754
:101AD0002068806910F4407F204602D0FFF7CAFFDB
:101AE00004E000F07BF8204600F079F825772068C4
:101AF0000169C943090716D4C168C943090712D44B
:101B00006FF008010161042020772068C069800718
:101B1000204602D0FFF7AEFF04E000F05FF8204659
:101B200000F05DF8257720680169C943C90617D41C
:101B3000C168C943C90613D46FF0100101610820C0
:101B400020772068C06910F4407F204602D0FFF75C
:101B500091FF04E000F042F8204600F040F82577BD
:101B600020680169C943C90708D1C168C943C907C9
:101B700004D1891E0161204600F032F82068016915
:101B8000C943090609D4C168C943090605D46FF0E1
:101B9000800101612046FFF72BFE20680169C943DF
:101BA000490609D4C168C943490605D46FF040010C
:101BB0000161204600F03EF820680169C9438906AA
:101BC0000BD4C168C943890607D46FF020010161B5
:101BD0002046BDE87040FFF70CBE70BD70477047EF
:101BE0000068B0F1804F21D11149C8680861401CDC
:101BF000C8608888401C82B28A8001F11C00642A77
:101C000012D300228A8043885B1C9BB243803C2B0A
:101C10000AD3428083885B1C9BB283803C2B03D316
:101C20008280C288521CC28089880180704700006F
:101C30001C0000207047704770470000F8B501682D
:101C400004460868CA684B6910F00F0F4FF0000592
:101C50005AD003F0010602F49077374365D0C107EC
:101C600005D0D10503D5216C41F001012164410764
:101C700005D5D90703D0216C41F002012164810709
:101C800005D5D90703D0216C41F004012164010777
:101C900007D502F02001314303D0216C41F0080147
:101CA0002164216C00293BD0800604D5900602D522
:101CB000204600F06EFD20684069216CC0F3801062
:101CC00001F00801014320462BD000F03BFD2068C5
:101CD0004069400621D52068143050E8001F21F0EB
:101CE000400140E80012002AF5D1A06BA8B16C4970
:101CF0000165A06BFFF7B1F8002811D0A06B016D52
:101D000001B0BDE8F040084783060ED593060CD518
:101D10002046BDE8F84000F03CBD2046FFF78CFFB0
:101D2000F8BDFFF789FF2564F8BD266B2023012E3F
:101D300079D1C60677D5D60675D50868486800906B
:101D40004869400640D5A16B086840680004000C53
:101D5000EAD0A28D8242E7D9E085C869B0F5807FDC
:101D60002DD020680C3050E8001F21F4807140E82D
:101D70000012002AF5D12068143050E8001F21F02D
:101D8000010140E80012002AF5D12068143050E823
:101D9000001F21F0400140E80012002AF5D184F82C
:101DA0003E30256320680C3050E8001F21F0100100
:101DB00040E80012002AF5D1A06BFFF705F8A08DCE
:101DC000E18D401A81B229E0A08DE18D401A81B2E7
:101DD000E08D0028A8D00029A6D020680C3050E85B
:101DE000002F22F4907240E80026002EF5D12068E2
:101DF000143050E8002F22F0010240E80026002EA7
:101E0000F5D184F83E30256320680C3050E8002F6F
:101E100022F0100240E80023002BF5D12046FFF706
:101E20000AFFF8BDFFE705062BD5150629D594F85E
:101E30003D002128F5D1A068B0F5805F01D120696F
:101E4000B0B1206A411C2162216800784860E08CB2
:101E5000401E0004000CE084E3D12068C16821F03A
:101E60008001C1602068C16841F04001C160D8E7CD
:101E7000206A0088C0F308004860206A801C206245
:101E8000E5E74006CDD55006CBD5CA68204622F0FE
:101E90004002CA6084F83D3000F088F9C1E70000D4
:101EA0003527000870B5040004D094F83D000025E3
:101EB00010B106E0012070BD84F83C50204600F0CF
:101EC00023F8242084F83D002068C16821F40051E3
:101ED000C160204600F0BEFC2068016921F49041F9
:101EE00001612068416921F02A0141612068C168CF
:101EF00041F40051C1602564202084F83D0084F83D
:101F00003E00002070BD00002DE9F04786B0044679
:101F100014216846FEF7FEF96D4924686B4E0023D4
:101F20006B4A1039032508276A484FF0010CB44268
:101F300020D1136843F400231360126802F40022D6
:101F400005920A6842F004020A60096801F004017F
:101F50000591A90200910221CDE9011CCDE90357A9
:101F60006946FEF7BFFF002202213420FFF75AF92D
:101F700034204CE0DFF860811226444517D1136805
:101F800043F480131360126802F4801205920A6809
:101F900042F004020A60096801F0040105914FF45F
:101FA00080518DE84210CDE9035769464EE0DFF8D5
:101FB0002C81DFF81C91DFF828A109F104094FF00A
:101FC000070C444528D1D9F8002042F01002C9F886
:101FD0000020D9F8000000F010000590086840F0DB
:101FE00001000860086802AA00F0010005904FF4A3
:101FF0000070CDE9000682E8281069465046FEF7D9
:1020000071FF002205212520FFF70CF92520FFF79D
:10201000FBF806B0BDE8F087DFF8C880444518D16A
:10202000106840F400301060106800F40030059033
:10203000086840F0010008600868694600F0010087
:1020400005900420CDE9000650461CE0FEF74AFF4B
:10205000DFE7DFF89480444519D1106840F4802010
:102060001060106800F480200590086840F00200BD
:1020700008600868694600F0020005904FF480602F
:10208000CDE90006194802AC84E82810DEE7184ABA
:102090009442BED1D9F8004044F02004C9F8004071
:1020A000D9F8002002F0200205920A6842F00402EA
:1020B0000A60096802AA01F0040105914021CDE9F6
:1020C000001682E8A8006946C0E70000004C004006
:1020D000403802400008024000500040001001401B
:1020E000000002400044004000480040000402405C
:1020F0000014014090F83E30202B0ED159B152B15E
:1021000090F83C30012B08D0012380F83C300023AC
:10211000036300F025BC01207047022070470000D7
:1021200070B500681D49884236D11D4C00252046F7
:102130006178C078052920D2DFE801F003070F1A83
:1021400028000D281AD1012015E00A2802D00D28F8
:1021500014D012E0A57002200DE0124AA17850546C
:10216000491CC8B2A070182808D3A570032002E04B
:102170000A2802D10420607000E06570BDE870405C
:1021800007490122C91C0848FFF7B4BF0D28F4D144
:10219000044800F007FCF0E770BD0000004C004070
:1021A0001C000020200300206C0100207047FEE787
:1021B000104810B50E4901600221416000214FF422
:1021C00050228160C0E903124FF4A00242610176FF
:1021D000012242768176C17601774177FEF7ABFC2A
:1021E000002803D0BDE81040FEF7A4BB10BD0000DE
:1021F00000640040D4000020104810B50E49016072
:102200000321416000214FF430228160C0E90312B4
:102210004FF4E00242610176012242768176C17676
:1022200001774177FEF787FC002803D0BDE8104016
:10223000FEF780BB10BD000000680040FC000020DD
:1022400010B5154A0021154801F0EAF9144C124A5C
:10225000002120602432134801F0E2F90E4A606048
:1022600048320021104801F0DBF90B4AA0606C32C3
:1022700000210E4801F0D4F9074AE06090320021B5
:102280000B4801F0CDF9044A2061B432002109481D
:1022900001F0C6F9606110BD704D00080D25000801
:1022A00000000020A135000805250008C30800082B
:1022B0001D3500089935000800B587B0142168461F
:1022C000FEF728F81E480021026842F0040202606E
:1022D000026802F004020592026842F020020260E5
:1022E000026802F020020592026842F08002026059
:1022F000026802F080020592026842F00102026068
:10230000026802F001020592026842F002020260D5
:10231000006800F002000590802000904FF48810C3
:10232000CDE9010169460748FEF7DCFD00220221E4
:102330001720FEF777FF1720FEF766FF07B000BDF6
:10234000303802400014024010B586B0002417480F
:10235000009401940294039404944FF080410594F6
:1023600001605321C0E9011442F21071C0E9031465
:1023700080218161FFF786FA08B1FEF7DBFA4FF49E
:102380008050009069460948FFF706FB08B1FEF748
:10239000D1FA049404A905480594FFF72BFA002804
:1023A00001D0FEF7C7FA06B010BD000024010020DE
:1023B0000C4810B50A4901604FF4E1314160002139
:1023C00081600C22C160C0E904128161C161FFF724
:1023D00069FD002803D0BDE81040FEF7ABBA10BD80
:1023E000004C00406C0100200C4810B50A49016007
:1023F0004FF4E1314160002181600C22C160C0E9ED
:1024000004128161C161FEF76BFE002803D0BDE8B4
:102410001040FEF78FBA10BD00500040B001002000
:102420000C4810B50A4901604FF4E13141600021C8
:1024300081600C22C160C0E904128161C161FEF7B4
:102440004FFE002803D0BDE81040FEF773BA10BD60
:1024500000100140F40100200C4810B50A49016049
:102460004FF4E1314160002181600C22C160C0E97C
:1024700004128161C161FEF733FE002803D0BDE87C
:102480001040FEF757BA10BD00440040380200204B
:102490000C4810B50A4901604FF4E1314160002158
:1024A00081600C22C160C0E904128161C161FEF744
:1024B00017FE002803D0BDE81040FEF73BBA10BD60
:1024C000004800407C0200200C4810B50A49016019
:1024D0004FF4E1314160002181600C22C160C0E90C
:1024E00004128161C161FEF7FBFD002803D0BDE845
:1024F0001040FEF71FBA10BD00140140C0020020BA
:10250000FEE7FEE7012001F04FF8FBE7012001F0B4
:102510004BF8FBE710B5FEF719FE02F073FA01283D
:1025200003D0BDE8104001F0A1BF10BD30B593B09D
:1025300030216846FDF7EEFE14210CA8FDF7EAFEF7
:102540001E480025016841F080510160006800F0DC
:10255000805011901A48016841F480410160006880
:10256000022400F4804011900120009000040190AA
:102570008001CDE90640082008904FF4A870CDE90D
:10258000090404200B906846FEF768FF08B172B694
:10259000FEE70CA90F2081E831004FF4A0500F9006
:1025A0004FF48050109005210CA8FEF76DFE002816
:1025B00001D072B6FEE713B030BD000040380240D3
:1025C000007000400248016841F4700101607047EA
:1025D00088ED00E00148FFF74EBA0000240100201A
:1025E000F0B50268254C264D264E274F274B4FF05D
:1025F000804CA04209D0604507D0A84205D0B04227
:1026000003D0B84201D0984204D122F0700E4A683B
:1026100042EA0E02A0421BD0604519D0A84217D052
:10262000B04215D0B84213D0984211D0184DA842EC
:102630000ED0184DA8420BD0174DA84208D0174D08
:10264000A84205D0164DA84202D0164DA84203D18B
:1026500022F44075CA682A434D6922F080022A4359
:1026600002608A68C2620A688262A04201D098420F
:1026700001D10969016301214161F0BD0000014000
:102680000004004000080040000C0040000401402D
:102690000040014000440140004801400018004053
:1026A000001C00400020004010B5846842EA03226C
:1026B00024F47F440A432243826010BD826822F0E2
:1026C00070020A4342F007018160704710B5036A47
:1026D000046A24F001040462846924F0F00444EAEA
:1026E000021423F00A020A438461026210BD10B58D
:1026F000036A23F0100303628369046A23F47043BE
:1027000043EA023224F0A00343EA0111826101622C
:1027100010BD000010B5012204490548FFF7EAFC8E
:10272000BDE810400248FFF789BA00001F000020F2
:102730006C01002010B5806B0021C185C184FFF7BA
:102740007BFA10BD01680C3151E8002F22F4907221
:1027500041E80023002BF5D10168143151E8002F26
:1027600022F0010241E80023002BF5D1016B012981
:1027700009D101680C3151E8002F22F0100241E824
:102780000023002BF5D1202180F83E1000210163A9
:10279000704708B590F83E10222901D0022008BDEC
:1027A00082684FF480539A4201D1016921B1816A54
:1027B0009A421BD04AB10AE00268816A5268C2F3A9
:1027C00008020A80816A891C08E0026972B1026805
:1027D000526802F07F020A70816A491C8162C18DD1
:1027E000491E0904090CC18503D019E0026852682A
:1027F000F1E70168CA6822F02002CA600168CA686D
:1028000022F48072CA6001684A6922F001024A61BA
:10281000202180F83E10016B012903D0FFF780FCD6
:10282000002008BD0021016301680C3151E8002F30
:1028300022F0100241E80023002BF5D101680A685C
:10284000D20602D50A6849680091818DFFF7F3F935
:10285000E6E7000070B5044600680169E26821F40B
:102860004051114301612169A068E269084361692F
:10287000114308432168CA6849F20C639A43024332
:10288000CA6020684169A26921F440711143416125
:1028900031492068884202D03049884202D1FEF78F
:1028A0009DFD01E0FEF78AFDE26900231921642500
:1028B0003226B2F5004F626828D0A0FB0101930FC9
:1028C0009200FDF7DDFC0146B0FBF5F06FF0180259
:1028D000504301EB800006EB0010B0FBF5F000F078
:1028E000F002B1FBF5F002EB0012B1FBF5F06FF076
:1028F0001803584301EB800006EB0010B0FBF5F025
:1029000000F00F0021681044886070BDA0FB010139
:1029100092185B41FDF7B4FC0146B0FBF5F00201F3
:10292000B1FBF5F06FF01803584301EB800006EBA4
:10293000C000B0FBF5F000F0F80002EB4002B1FB84
:10294000F5F0584301EB800006EBC000B0FBF5F05A
:1029500000F00700D6E7000000100140001401401D
:1029600081628285C28500210164222280F83E2096
:1029700080F83C100168CA6842F48072CA6001683D
:102980004A6942F001024A610068C16841F02001D1
:10299000C1600020704700000148FFF74FB90000F8
:1029A000F401002070B5464C2DED068BA4F12405F2
:1029B00094ED031A84ED061AD4ED040AC4ED070A57
:1029C000D0ED001AC4ED001A90ED010A84ED010A61
:1029D00090ED020A84ED020A90ED032A84ED032AA9
:1029E00090ED040A32EE411A84ED040AD0ED052A76
:1029F00030EE600AC4ED052A84ED081A84ED090A58
:102A0000D4ED0A0A2F4870EE810AC4ED0A0AD4ED0B
:102A10000B0A30EE800A84ED0B0A90ED060A31EEC7
:102A2000C00A85ED020ADFED28AA9FED28AA60EE14
:102A30002A0A80EE8A0A10EE100AFDF71DFE41EC0C
:102A4000100B00F0DDF89FED229B51EC100B53ECC6
:102A5000192BFDF711FD41EC180BA06AFDF70CFED8
:102A600053EC182BFDF761FCFDF719FE286095ED7E
:102A7000020A60EE2A0A80EE8A0A10EE100AFDF7BA
:102A8000FBFD41EC100B00F057F89FED131B51ECD0
:102A9000100B53EC112BFDF7E9FC53EC192BFDF750
:102AA000EBFC41EC180BE06AFDF7E6FD53EC182B4C
:102AB000FDF7DCFCFDF7F3FD6860BDEC068B70BD37
:102AC000380300201C000020DB0F49400000344385
:102AD000000000A099C96740000000000000F03F1E
:102AE000FEE703B401984100009850EAC12018BFE6
:102AF00004204A0D18BF40F0010040F2FF72B2EB13
:102B0000515F08BF40F00200012808BF052002B055
:102B100070470907090E002804DB00F1E02080F867
:102B20000014704700F00F0000F1E02080F8141D41
:102B3000704700000000000010B52F499FED2C1BCE
:102B40002DED020B84B0059820F000408842D8BFDC
:102B50009DED040B2DDD2949884209D1049840B927
:102B60004FF0010000F0D4FC00F0A2FC06B010BD54
:102B700005DB9DED040B00F08FFC06B010BD684630
:102B80009DED040B00F0A0F810F0030004BF9DEDD4
:102B9000021B9DED000B0CD001280ED09DED021BF9
:102BA0009DED000B022817D0012000F0DDFB06B0E0
:102BB00010BD00F0A5FA06B010BD9DED021B9DED05
:102BC000000B012000F0D0FB51EC100B81F0004114
:102BD00006B041EC100B10BD00F092FA51EC100B56
:102BE00081F0004106B041EC100B10BD0000000068
:102BF0000000000000000000FB21E93F0000F07F22
:102C000010B52F499FED2C1B2DED020B84B00598BC
:102C100020F000408842DCBF00209DED040B32DD37
:102C20002849884209D1049840B94FF0010000F0CA
:102C30006FFC00F03DFC06B010BD05DB9DED040B04
:102C400000F02AFC06B010BD68469DED040B00F0B4
:102C50003BF810F0030011D0012818D09DED021BA5
:102C60009DED000B02281AD000F04AFA51EC100B2F
:102C700081F0004106B041EC100B10BD9DED021B30
:102C80009DED000B012000F06FFB06B010BD9DED27
:102C9000021B9DED000B00F033FA06B010BD0120C1
:102CA00000F062FB51EC100B81F0004106B041ECEA
:102CB000100B10BD0000000000000000000000002C
:102CC000FB21E93F0000F07F2DE9F14F04462DED97
:102CD000020B2DED088B8AB09FEDE70B80ED020B08
:102CE000139EE74826F0004585420ADC9DED120B55
:102CF000002084ED000B0AB0BDEC088B03B0BDE8EA
:102D0000F08FE0489FEDE0AB9FEDE1BBA84247DDCF
:102D1000E14F9FEDE39B9FEDE48B9DED120B53EC98
:102D20001A2B51EC100B002E1CDDFDF79FFB41EC24
:102D3000100BBD4208D053EC1B2B51EC100BFDF7D0
:102D400095FBC4E900010BE053EC192B51EC100B7F
:102D5000FDF78CFB53EC182BFDF788FBC4E9000151
:102D60000120C8E7FDF7E1FA41EC100BBD4208D0A5
:102D700053EC1B2B51EC100BFDF7D7FAC4E9000103
:102D80000BE053EC192B51EC100BFDF7CEFA53EC82
:102D9000182BFDF7CAFAC4E900014FF0FF30AAE78B
:102DA000C348A84279DB9DED120B51EC100B00F0EB
:102DB000B9FB41EC180B9FEDC00B53EC102BFDF74A
:102DC0005BFB9FEDBF1B53EC112BFDF7AEFAFDF73C
:102DD00034FC0746FDF744FD41EC190B53EC1A2B6C
:102DE000FDF74AFB53EC182BFDF743FB41EC180BA6
:102DF00053EC1B2B51EC190BFDF73EFBDFF8C8A27F
:102E000041EC100B4FEA15580125FA4453EC102BF6
:102E100051EC180BFDF72AFB032DC4E900013DD04E
:102E2000C1F30A5005EB4511A8EB000011398142AE
:102E300034DA0AEB051BB0EE48AA9BED000BF0EE6E
:102E400068AA53EC102B51EC190BFDF715FB41EC64
:102E50001B0B51EC1A0B53EC1B2BFDF707FB41EC42
:102E6000180B51EC1A0B53EC182BFDF7FFFA53EC2F
:102E70001B2BFDF7FBFA9BED020B41EC1A0B53ECFD
:102E8000102B51EC190BFDF7F7FA53EC1A2BFDF749
:102E9000EDFA41EC100B6D1CB8E70EE0002EA8BF58
:102EA0003846BFF628AF94ED000B51EC100B81F0C3
:102EB0000041C4E9000178421DE7C6F3130040F465
:102EC000801EC6F30A50A0F2F530471100F01F052E
:102ED000C5F12000DDF848B008900020069007906A
:102EE0000520EC467949002D07EB0002794408BF24
:102EF00051F8221009D051F8223001EB8201AB4089
:102F00004A68089922FA01F11943A1FB0E26A1FB98
:102F10000B131A449A4234BF0123002303EB060823
:102F20000CEB8003D3E901A60E448E4234BF01218D
:102F3000002192448A4411B1924502D903E092459E
:102F400001D2012100E00021C3E901A641444CF86F
:102F50002010011EA0F10100C4DC029800F1005015
:102F6000850F0298DDE903678000DDF81480FDF726
:102F700077FC41EC1A0B3046FDF796FC9FED541B95
:102F800053EC112BFDF778FA41EC1B0B3846FDF79B
:102F90008BFC9FED511B53EC112BFDF76DFA41ECAF
:102FA000180B4046FDF780FC9FED4D1B53EC112B99
:102FB000FDF762FA41EC190B51EC180B53EC192B8D
:102FC000FDF7B3F953EC1B2BFDF7AFF953EC1A2BBC
:102FD000FDF7ABF9CDE90801002008909DED080B45
:102FE00053EC1A2B51EC100BFDF740FA53EC1B2B52
:102FF000FDF73CFA53EC182BFDF738FA53EC192B7C
:10300000FDF737FA9FED381B53EC112BFDF734FA1F
:103010009FED370B41EC180B53EC102B9DED080B7B
:1030200051EC100BFDF728FA53EC182BFDF77DF946
:103030009FED310B41EC180B53EC102B9DED080B61
:1030400051EC100BFDF718FA53EC182BFDF76DF946
:1030500041EC100B139810F0004F06D06D4251EC6C
:10306000100B81F0004141EC100B284684ED000B61
:1030700041E6000000000000000000000000000029
:10308000FB21E93F7CD9024000004054FB21F93F7D
:103090003163621A61B4D03DFB21F93F00000000AA
:1030A0000000601A61B4D03D7370032E8A19A33BEF
:1030B000FB2139410000000083C8C96D305FE43F47
:1030C000000000000000E03F82200000D01F000050
:1030D000000000000000103E000000000000103C56
:1030E000000000000000103A182D4454FB21F93D67
:1030F0003326A611460B113C00000054FB21F93D7C
:1031000010B52DED040B2DED088B82B0B0EE419A79
:10311000F0EE619A0B9820F000449FED4BABB4F1B8
:10312000795F11DA9DED0A0B51EC100BFDF785FA72
:10313000002801BFB0EE4A0AF0EE6A0A02B0BDEC08
:10314000088B04BF04B010BD9DED0A0B53EC102B8F
:1031500051EC100BFDF790F941EC180B3C4806219F
:10316000B0EE480AF0EE680A784400F081F853ECBB
:10317000182B51EC100BFDF77FF99DED0A0B41EC7C
:103180001B0B53EC192B51EC100BFDF775F941ECAF
:10319000190B53EC1B2B51EC180BFDF76DF953EC8D
:1031A000192BFDF763F99FED2C0B41EC190B53EC38
:1031B000102B51EC180BFDF75FF941EC100B284870
:1031C000844210DA53EC192B51EC100BFDF74EF939
:1031D00053EC1A2BFDF74DF941EC100B02B0BDEC8E
:1031E000088B04B010BD1F48A042BCBF9FED1E1B42
:1031F0008DED001B06DBA4F500100190002000906F
:103200009DED001B51EC100B53EC112BFDF72EF92B
:103210009DED000B41EC180B53EC102B51EC1A0BED
:10322000FDF724F941EC1A0B53EC192B51EC180B58
:10323000FDF71CF953EC1A2BFDF71BF941EC100BB1
:10324000CCE7000000000000000000000000F03F9C
:10325000F41C000000000000000000000000E03F3F
:103260003333D33F0000E93F000000000000D23FAD
:1032700070B504462DED028B4D1E00EBC500B0EE7F
:10328000408AF0EE608A90ED000B35F0060017D012
:1032900053EC182B51EC100BFDF7EEF841EC100B32
:1032A0006D1E04EBC50090ED001B51EC100B53ECB0
:1032B000112BFDF73AF841EC100B35F00600E7D181
:1032C000022D36D0042D1CD0062D1CBFBDEC028B68
:1032D00070BD53EC182B51EC100BFDF7CDF894EDAD
:1032E0000A1B53EC112BFDF720F853EC182BFDF7BC
:1032F000C3F894ED081B53EC112BFDF716F841ECC5
:10330000100B53EC182B51EC100BFDF7B5F894EDA6
:10331000061B53EC112BFDF708F853EC182BFDF7A7
:10332000ABF894ED040B53EC102BFCF7FEFF41ECD3
:10333000100B53EC182B51EC100BFDF79DF894ED8E
:10334000021B53EC112BFCF7F0FF53EC182BFDF78D
:1033500093F894ED001B53EC112BFCF7E6FFBDEC4A
:10336000028B41EC100B70BD31B504462DED040B02
:103370002DED0A8BB0EE41BAF0EE61BA0B989DEDDF
:103380000A0B20F00040B0F1795F0DDA51EC100B20
:10339000FFF7A7FB042808BF00F09AF89DED0A0B81
:1033A000BDEC0A8B05B030BD53EC102B51EC100B6B
:1033B000FDF762F841EC180B9DED0A0B53EC182B4E
:1033C00051EC100BFDF758F841EC190B2C48B0EEFE
:1033D000480AF0EE680A05217844FFF749FF9FED9F
:1033E0002ACBB0EE40AAF0EE60AA9CB353EC1C2BA3
:1033F00051EC190BFDF740F841EC1C0B53EC1A2B68
:1034000051EC190BFDF738F89FED210B41EC190B2E
:1034100053EC102B51EC1B0BFDF72EF853EC192B32
:10342000FDF724F853EC182BFDF726F853EC1B2B73
:10343000FDF71CF853EC1C2BFDF718F89DED0A1B4B
:1034400053EC112BFDF715F8BDEC0A8B05B041ECE0
:10345000100B30BDFFE753EC1A2B51EC180BFDF7A6
:103460000BF853EC1C2BFCF760FF53EC192BFDF70A
:1034700003F89DED0A1B53EC112BFCF756FFE3E715
:103480007C1B000000000000495555555555C5BF2F
:10349000000000000000E03F10B553EC102B51EC91
:1034A000100BFCF742FF41EC100B10BD00000000B8
:1034B0009FED050B10B553EC102B51EC100BFDF7E5
:1034C0004DF841EC100B10BD0000000000000000A2
:1034D0009FED050B10B553EC102B51EC100BFCF7C6
:1034E000CBFF41EC100B10BD0000000000000010ED
:1034F00002E008C8121F08C1002AFAD170477047BD
:10350000002001E001C1121F002AFBD1704700001A
:103510000149086070470000D0000020012000F041
:1035200043F8FBE782B0CDE9000121F000400190B3
:103530009DED000B02B051EC100B7047FDF70EFE35
:10354000FEF7F4FFFEF7B8FEFEF732FEFEF754FE7C
:10355000FEF72EFFFEF748FFFEF762FFFEF77CFF47
:10356000FEF796FFFEF7B0FFFEF7EEFE0748FEF708
:10357000D3F9012206490748FEF7BCFD00F022F806
:10358000FEF75EFE00F030F8FEE7000024010020A8
:103590001F0000206C010020012000F005F8FBE76F
:1035A000012000F001F8FBE710B5EFF3058111B140
:1035B0006FF0050403E0002408B100F0F7FD204699
:1035C00010BD0000EFF3058010B16FF005007047EB
:1035D0000448016811B14FF0FF30704701210160CC
:1035E00000207047A000002010B5EFF3058010B157
:1035F0006FF0050010BD08480168012902D04FF0A6
:10360000FF3010BD054A002182F8141D022101601F
:1036100000F034FE002010BDA00000200BE000E010
:103620002DE9FF410B464FF00005EFF305810395AF
:1036300049BB40B38027182100244AB3166806B15D
:10364000344696691EB13146761E382E02D216795E
:10365000F60703D0002004B0BDE8F081566906B13A
:10366000B708D2F808C0BCF1000F0DD0D5685C2DAA
:1036700018D312693AB136B18DE806103A462146A0
:1036800001F095F903900DE0D6685EB912694AB968
:1036900003AACDE90012BAB2214601F05BF9012874
:1036A00000D003950398D6E72DE9F041134C0F465F
:1036B0000546E6682068001D00F044FC681C07D140
:1036C00037B12168BDE8F0410D48091D00F08ABC02
:1036D00020683544B5424560216805D2A06BBDE83D
:1036E000F041091D00F066BC606B091D00F062FC32
:1036F000A06A854200D2A562BDE8F081500000209A
:10370000580800202DE9F041054600F077FC2D4CCB
:10371000A068401CA06020682B4F10B1606930B3D6
:103720002BE02560A068012827D1002606EB860043
:1037300007EB800000F030FC761C382EF6D32348CF
:1037400000F02AFC2148143000F026FC1F482830E5
:1037500000F022FC1D483C3000F01EFC1B4850309D
:1037600000F01AFC194860631430A06305E020687B
:10377000E96AC06A884200D82560606A401C6062BD
:103780006864E86A2169884200D9206100EB800002
:1037900007EB8000291D00F025FC00F04FFC60695C
:1037A00000280CD02068E96AC06A884207D208491C
:1037B0004FF080500860BFF34F8FBFF36F8FBDE8AD
:1037C000F081000050000020A8030020080800201D
:1037D00004ED00E038B500F011FC104C2068C8B9C9
:1037E0000F4800F0D9FB0E48143000F0D5FB0C4810
:1037F000E060143020610A4B0020F03B009003F1A0
:10380000500210210A2000F047FE206010B105A1EF
:1038100000F096FCBDE8384000F010BC8C000020A1
:103820005C090020546D72510000000030B4026C3D
:103830000B46002A0BD0C1681144C1608468A142C4
:1038400001D30168C16030BC1846FCF74ABD30BCEA
:1038500070472DE9F041856B174604460026026C3F
:1038600082B1C7B1E068FCF73CFDE168206C091A41
:10387000E1602268914202D2A168081AE060022F3A
:1038800016D017E02068A8B9A06801F033F9064601
:103890000020A0600EE06068FCF723FD216C6068EA
:1038A00008446060A168884204D32068606001E039
:1038B00005B16D1E6D1CA5633046BDE8F08110B5E5
:1038C000044690F8590058B101280CD002280FD0B6
:1038D000502080F31188BFF34F8FBFF36F8FFEE747
:1038E000206B00F0BFFB2046BDE8104000F0BABBE3
:1038F00010BD000010484FF47051420706D0C01DA3
:103900000D4920F00700411AC1F570510B4A002300
:103910000144C2E900030839183A21F00701116097
:103920004B600B600B1AC0E9001393604FF000402E
:1039300053605061704700003C100020BC00002024
:10394000144E154CA6F29C474FF08058DFF84C906F
:1039500012E000BF00F052FBF068C568281D00F0BF
:10396000F1FAA068401EA0606068401E606000F030
:1039700065FB2846FFF7A3FF60680028EAD1386896
:103980000128F9D9C9F80080BFF34F8FBFF36F8FBB
:10399000F2E70000440800205000002004ED00E0A1
:1039A00070B51D46049C51B1C4F80020C4E90F0154
:1039B0000121204600F0A4FD84F84C5070BD246025
:1039C000F4E700002DE9F05F8846DDE90B94154629
:1039D000834691009A460A9EA522206BFCF793FC31
:1039E0006FF00301206B01EB8501084420F007070D
:1039F000780707D0502080F31188BFF34F8FBFF3B3
:103A00006F8FFEE70025B8F1000F0FD05FF00000C8
:103A1000221818F8001082F8341018F8001011B1AC
:103A2000401C1028F4D384F8435001E084F834504B
:103A3000382E00D33726E662C4E91365201D00F056
:103A4000B6FA04F1180000F0B2FA2461C6F13800A9
:103A50006462A061656584F85850524659463846FC
:103A600000F05AFA2060B9F1000F01D0C9F8004007
:103A7000BDE8F09F30B5114900E011460A68824266
:103A8000FBD34B685C18844203D1406818444860FB
:103A9000084643681C18944209D1084C183C246815
:103AA000A24209D052681A4442600A681268026051
:103AB000814200D0086030BD0460F9E7BC000020FE
:103AC00070B5002441600B4D0061914206D8D11AB7
:103AD0008269914206D2011D286907E09A4203D209
:103AE000994201D3012403E0011DE86800F062FA65
:103AF000204670BD8C00002010B5044600F07EFA10
:103B0000A06B28B15FF0000400F098FA204610BDC9
:103B10000124F9E730B589B03C4D6EE004980028E7
:103B200006DADDE90601059A90470498002864DB6F
:103B3000069C606910B1201D00F004FA03A800F093
:103B4000D7F8024604980A2857D2DFE800F00505A6
:103B5000052D334A05052D3394F8280040F0010067
:103B600084F828000599A069059B01442046FFF7C9
:103B7000A7FF68B3216A2046884794F828004007C9
:103B80003BD5002000900598A169002342181946F2
:103B9000204601F0B9F8D8B9502080F31188BFF35E
:103BA0004F8FBFF36F8FFEE714F8280F20F001004E
:103BB000207022E094F8280040F0010084F82800EA
:103BC0000598A06128B1811813462046FFF778FFB9
:103BD00013E0502080F31188BFF34F8FBFF36F8F36
:103BE000FEE794F82800810703D4204600F03AFA53
:103BF00003E020F0010084F82800002204A92868CE
:103C000000F0D2FD002889D109B030BD8C00002021
:103C10002DE9FC410F46054600F074FB01A800F0B9
:103C200067F80446019818B100F0DCFFBDE8FC819C
:103C3000254EAFB130690068D0B30027291B3A4642
:103C4000306800F091FA00F0CDFF0028EED11F4956
:103C50004FF080500860BFF34F8FBFF36F8FE5E7E1
:103C6000A542EBD800F0BEFFF0682746C068C468E4
:103C7000201D00F067F994F82800410719D5A069C4
:103C80002B4641193A462046FFF71AFFA8B10020FB
:103C90000346014600902A46204601F035F860B9F7
:103CA000502080F31188BFF34F8FBFF36F8FFEE773
:103CB00007E020F0010084F82800216A20468847A8
:103CC000B4E70127BAE700008C00002004ED00E013
:103CD0000648416B096829B1416BC968C9684968E0
:103CE000816270474FF0FF31FAE70000500000207A
:103CF00070B5054600F094FE064E0446B068844256
:103D000003D200F009F8012000E0002028602046DE
:103D1000B46070BD8C000020F8B5194D20E0C0687B
:103D2000C4680668201D00F00DF9216A2046884706
:103D300094F82800400713D5A0693044B04206D952
:103D400024616060211DE86800F034F908E000207B
:103D50000346014600903246204600F0D5FF38B1B8
:103D6000E86801680029DAD12969C5E90310F8BDBE
:103D7000502080F31188BFF34F8FBFF36F8FFEE7A2
:103D80008C00002008484068401C4FF0500080F331
:103D9000118804D0BFF34F8FBFF36F8FFEE7BFF3DF
:103DA0004F8FBFF36F8FFEE7C4000020074CE06821
:103DB000016841B1C0680021D0F80000FFF728FF7A
:103DC000FFF7A8FEF3E701210020F7E78C000020B1
:103DD0002DE9F041044600F011F994F9455004F141
:103DE000240609E0606A48B1304600F0C3FE08B11D
:103DF00000F00AFA6D1E6DB2002DF3DC4FF0FF36B5
:103E000084F8456000F01AF900F0F8F894F944508D
:103E100004F1100709E0206948B1384600F0AAFE15
:103E200008B100F0F1F96D1E6DB2002DF3DC84F8DD
:103E30004460BDE8F04100F001B900002DE9F04117
:103E40000546002700F05EFA324E306808B9FFF7E9
:103E500051FD706905424ED1C5B3083568070ED0D3
:103E600005F00700C0F108000544680707D050209E
:103E700080F31188BFF34F8FBFF36F8FFEE72DB331
:103E80007068854237D82348183001460C6801E035
:103E900020460C466168A94202D221680029F7D168
:103EA00031688C4227D00768216801606068083754
:103EB000411B10290FD96019420708D0502080F308
:103EC0001188BFF34F8FBFF36F8FFEE713E04160A0
:103ED0006560FFF7CFFD61687068401A7060B26876
:103EE000904200D2B060706901430020C4E9000133
:103EF000F068401CF06000F075FE780707D0502095
:103F000080F31188BFF34F8FBFF36F8FFEE7384602
:103F1000BDE8F081A400002010B5031F4FF08074AD
:103F20001C601B1F21F001011960191F044B0B605D
:103F300014390A60091F6FF0020244380A6010BD8C
:103F4000853D0008D0E9013201699A60D0E901237A
:103F50005A604A68824201D182684A600022026146
:103F60000868401E0860086870470000034B036043
:103F700003F15C0008608020106070478409002015
:103F8000044B036003F15C0008604FF48070106024
:103F900070470000E00B002000F108014FF0FF32F5
:103FA000C0E90112C1600161002101607047002178
:103FB0000161704730B50B685A1C02D000F108024D
:103FC00002E0026904E02246546825689D42FAD95D
:103FD00053684B6099608A60516008610168491CB0
:103FE000016030BD42684A6093688B609368596095
:103FF000916008610168491C01607047502080F39E
:104000001188BFF34F8FBFF36F8F0A494868401C78
:10401000486001280CD10848006810F0FF0F07D055
:10402000502080F31188BFF34F8FBFF36F8FFEE7EF
:1040300070470000C400002004ED00E00849486813
:1040400028B1401E486001D180F31188704750208C
:1040500080F31188BFF34F8FBFF36F8FFEE700002F
:10406000C400002070B500282AD0164DA0F1080425
:1040700060686969084207D1502080F31188BFF356
:104080004F8FBFF36F8FFEE722683AB1502080F365
:104090001188BFF34F8FBFF36F8FFEE788436060D7
:1040A00000F030F960686968084468602046FFF7EE
:1040B000E1FC2869401C2861BDE8704000F092BD19
:1040C00070BD0000A40000204FF0E020002101613D
:1040D000816105494FF47A720968B1FBF2F1491E1A
:1040E00041610721016170474C00002010B5FCF7C9
:1040F000B1F8114910280ED300F1E02090F8F00338
:104100000A78904207D2502080F31188BFF34F8F76
:10411000BFF36F8FFEE709480068896800F4E0602C
:10412000884207D9502080F31188BFF34F8FBFF327
:104130006F8FFEE710BD0000C40000200CED00E012
:1041400010B5084B002200BF53F832401CB1521C7E
:10415000082AF9D310BD43F8321003EBC2014860BE
:1041600010BD00006803002070B515460E460446D9
:10417000FFF744FF94F944100020491C01D184F852
:10418000440094F94510491C01D184F84500FFF71B
:1041900055FFA06B28B92A46314604F1240000F0EF
:1041A00051F82046BDE87040FFF712BE10B502007E
:1041B00014D00F48006B38B1502080F31188BFF342
:1041C0004F8FBFF36F8FFEE700F09CF80021104681
:1041D000FFF76AFA00F006FD002807D105494FF005
:1041E00080500860BFF34F8FBFF36F8F10BD00008A
:1041F0005000002004ED00E002490A6A0260C9682C
:10420000416070475000002001490120C86170479B
:104210005000002010B50C4650B10949096818310A
:10422000FFF7C8FE2046BDE810400121FFF73CBA69
:10423000502080F31188BFF34F8FBFF36F8FFEE7DD
:104240005000002070B514460D4668B10A4909684F
:104250001831FFF7C7FE0CB14FF0FF352146284655
:10426000BDE87040FFF720BA502080F31188BFF3FB
:104270004F8FBFF36F8FFEE75000002030B587B03F
:104280000024039405AA04A903A80494FFF76EFE72
:10429000DDE903010094CDE90110002315A11748C1
:1042A000059A00F084FB164D0028E8621FD000F04C
:1042B000FBFC012809D0401C19D1502080F3118843
:1042C000BFF34F8FBFF36F8FFEE7502080F311884D
:1042D000BFF34F8FBFF36F8F4FF0FF30A862012005
:1042E0006861EC6007B0BDE8304000F045B807B049
:1042F00030BD000049444C45000000004139000831
:10430000500000200248016B491C01637047000007
:1043100050000020164810B5016B11B10121C16198
:1043200010BD0021C1610169124A01E0B9B1491E05
:1043300001EB810352F82330002BF7D001EB81030E
:1043400002EB830202F1080453685B685360A342E6
:1043500001D15B685360DA680260016110BD5020D2
:1043600080F31188BFF34F8FBFF36F8FFEE700001C
:1043700050000020A80300201CB537480168374AC8
:10438000914207D1502080F31188BFF34F8FBFF3C4
:104390006F8FFEE700683149491E884207D15020DF
:1043A00080F31188BFF34F8FBFF36F8FFEE72C4967
:1043B00008780190FF20087008788DF800009DF8BB
:1043C00000009DF8002000F0F000904207D050203F
:1043D00080F31188BFF34F8FBFF36F8FFEE79DF817
:1043E0000000204C00F0500020700720A06005E085
:1043F0009DF8002052008DF80020401E9DF80020FE
:104400001206F5D4A060032807D0502080F311884D
:10441000BFF34F8FBFF36F8FFEE74FF44070A06084
:10442000019808700C482030016841F47001016067
:10443000016841F070410160FFF746FE00206060B6
:10444000FBF7D0FE0848016841F040410160FBF7EE
:10445000B5FE00201CBD000000ED00E071C20F4160
:1044600000E400E0C400002034EF00E010B550206C
:1044700080F31188BFF34F8FBFF36F8F00F0D6FA30
:1044800018B104494FF080500860002080F3118873
:1044900010BD000004ED00E038B5049D18B153B123
:1044A000CAB181B120E0502080F31188BFF34F8F53
:1044B000BFF36F8FFEE7502080F31188BFF34F8F5B
:1044C000BFF36F8FFEE7502080F31188BFF34F8F4B
:1044D000BFF36F8FFEE739B1502080F31188BFF32F
:1044E0004F8FBFF36F8FFEE750241C46012384F8E3
:1044F00046302B460094FFF753FA204638BD0000A3
:1045000070B50D46040025D0FFF778FDD4E90F20E3
:10451000216802FB0011A1600021A1632168616094
:104520000A46D4E90F01401E00FB0121E16021464B
:104530004FF0FF3001F8440F487004F110008DB1C6
:10454000FFF72AFD04F12400FFF726FDFFF776FDB3
:10455000012070BD502080F31188BFF34F8FBFF34F
:104560006F8FFEE721690029F0D000F003FB0028DF
:10457000ECD004494FF080500860BFF34F8FBFF379
:104580006F8FE3E704ED00E02DE9FF4782B01D46A1
:104590008A464FF00008040003D0BAF1000F08D09B
:1045A00011E0502080F31188BFF34F8FBFF36F8F5E
:1045B000FEE7206C38B1502080F31188BFF34F8F95
:1045C000BFF36F8FFEE7022D0AD1E06B012807D001
:1045D000502080F31188BFF34F8FBFF36F8FFEE73A
:1045E00000F010FA3F4F4FF000094FF0805648B9E5
:1045F000049838B1502080F31188BFF34F8FBFF378
:104600006F8FFEE7FFF7FAFCA06BE16B884207D3E0
:10461000022D05D00498D0B1B8F1000F1AD01EE0D9
:104620002A4651462046FFF714F9616A19B104F190
:10463000240000F09FFA20B13E60BFF34F8FBFF31C
:104640006F8FFFF7FBFC012006B0BDE8F087FFF796
:10465000F5FC22E06846FFF7CFFD4FF00108FFF7B9
:10466000EDFCFFF74FFEFFF7C9FC94F94400401C36
:1046700001D184F8449094F94500401C01D184F89C
:104680004590FFF7DBFC04A9684600F029F930B13A
:104690002046FFF79DFB00F0A5FA0020D4E7FFF7C6
:1046A000ADFCA06BE16B884213D1FFF7C7FC04F1AE
:1046B00010000499FFF7AEFD2046FFF789FB00F0DC
:1046C00091FA00289ED13E60BFF34F8FBFF36F8FEA
:1046D00098E7FFF7B3FC2046FFF77AFB00F082FA79
:1046E00090E7000004ED00E02DE9F0471F469046FA
:1046F0008946040003D0B9F1000F08D011E0502022
:1047000080F31188BFF34F8FBFF36F8FFEE7206CEC
:1047100038B1502080F31188BFF34F8FBFF36F8FF4
:10472000FEE7022F0AD1E06B012807D0502080F36A
:104730001188BFF34F8FBFF36F8FFEE7FFF7D6FCF3
:104740005020EFF3118680F31188BFF34F8FBFF332
:104750006F8FA06BE16B884206D3022F04D000203C
:1047600086F31188BDE8F08794F94550A06B3A466E
:1047700049462046FFF76DF8681C04D06D1C84F88C
:1047800045500120ECE7606A0028FAD004F12400CB
:1047900000F0F0F90028F4D0B8F1000FF1D00121B9
:1047A000C8F80010EDE700002DE9F747002683B0B8
:1047B0008A46040003D0BAF1000F08D011E050205F
:1047C00080F31188BFF34F8FBFF36F8FFEE7206C2C
:1047D00038B1502080F31188BFF34F8FBFF36F8F34
:1047E000FEE700F00FF9DFF8F4804FF000094FF01A
:1047F000805748B9059838B1502080F31188BFF32D
:104800004F8FBFF36F8FFEE7FFF7F8FBA56BC5B1C6
:1048100051462046FFF70AF86D1EA563206950B186
:1048200004F1100000F0A6F928B1C8F80070BFF339
:104830004F8FBFF36F8FFFF701FC012006B0BDE87B
:10484000F087059808B11EB106E0FFF7F7FB27E0F7
:104850006846FFF7D1FC0126FFF7F0FBFFF752FD9A
:10486000FFF7CCFB94F94400401C01D184F844903C
:1048700094F94500401C01D184F84590FFF7DEFB18
:1048800005A9684600F02CF8002820460AD0FFF75A
:104890009FFA00F0A7F92046FFF72EF90028B3D0C1
:1048A0000020CBE7FFF728F990B104F12400059927
:1048B000FFF7B0FC2046FFF78BFA00F093F90028D1
:1048C000A2D1C8F80070BFF34F8FBFF36F8F9BE783
:1048D0002046FFF77DFA00F085F995E704ED00E04A
:1048E0002DE9F0410C46050011D0C4B1FFF786FB5D
:1048F000174BDA686E682068911B471C17D02F6829
:104900001B6A9F4219D0964217D8012410E050200C
:1049100080F31188BFF34F8FBFF36F8FFEE75020F6
:1049200080F31188BFF34F8FBFF36F8FFEE7002432
:10493000FFF784FB2046BDE8F081884205D9401A84
:1049400020602846FFF758FCF1E700202060DCE7F4
:10495000500000202DE9FF5F8346DDE90E87994670
:1049600016468A469000FFF769FA05001CD05C20C5
:10497000FFF764FA040014D00020256384F859007E
:10498000CDE90240CDE900874B46324651465846B4
:10499000FFF718F82046FEF7B5FE012004B0BDE889
:1049A000F09F2846FFF75EFB4FF0FF30F6E7F0B5CB
:1049B00085B0DDE90B640A9DA6B1DCB15C270097E8
:1049C0002663022684F85960002604AFCDE902462A
:1049D000CDE90057FEF7F6FF2046FEF793FE049858
:1049E00005B0F0BD502080F31188BFF34F8FBFF3A7
:1049F0006F8FFEE7502080F31188BFF34F8FBFF316
:104A00006F8FFEE70548416919B1006B18B10020AE
:104A100070470120704702207047000050000020BE
:104A20000148C06870470000500000202DE9F041A7
:104A30002E4C0027206B28B1A069401CA06138468D
:104A4000BDE8F081E668761CE66013D1606B006813
:104A500038B1502080F31188BFF34F8FBFF36F8FB1
:104A6000FEE7606BA16B6163A063206A401C20625B
:104A7000FFF72EF9A06ADFF87880864209D3606BD1
:104A80000068A0B1606BC068C5686868864211D2D2
:104A9000A0622068C06A00EB800158F8210001285C
:104AA00000D90127E0690028C9D00127C7E74FF0E6
:104AB000FF30EDE7281DFFF745FAA86A18B105F1A8
:104AC0001800FFF73FFAE86A2169884200D920619F
:104AD00000EB800108EB8100291DFFF783FAE86AEB
:104AE0002168C96A8842CAD30127C8E7500000205C
:104AF000A803002070B504004FF0000133D01B4D17
:104B00002868844207D0502080F31188BFF34F8F6C
:104B1000BFF36F8FFEE7206D38B1401E2065E36C58
:104B2000E26A9A421FD040B11DE0502080F3118804
:104B3000BFF34F8FBFF36F8FFEE7201DFFF702FA21
:104B4000E06CE062C0F13800A061E06A2969884247
:104B500000D92861064900EB800001EB8000211D8F
:104B6000FFF740FA0121084670BD00005000002008
:104B7000A803002070B5C068C46854B104F11800DF
:104B80000646FFF7DFF9144D286B50B13146134844
:104B900015E0502080F31188BFF34F8FBFF36F8F64
:104BA000FEE7201DFFF7CEF9E06A2969884200D9A7
:104BB00028610B4900EB800001EB8000211DFFF70D
:104BC00011FAE06A2968C96A884202D90120E861BD
:104BD00070BD002070BD0000500000203008002093
:104BE000A80300202DE9F0472C4D00242746286B10
:104BF00038B1FFF703FA286B401E2863286B40B1D9
:104C000046E0502080F31188BFF34F8FBFF36F8FC2
:104C1000FEE7A968224E0120D1B3A6F5916980462E
:104C20003068E0B1F068C46804F11800FFF78AF951
:104C3000201DFFF787F9E06A2969884200D92861B9
:104C400000EB800109EB8100211DFFF7CBF9E06A41
:104C50002968C96A8842E3D3C5F81C80E0E70CB133
:104C6000FFF736F8AC694CB14FEA0806FFF7DEFEF5
:104C700000B1EE61641EF9D10020A861E86938B185
:104C80000849012738070860BFF34F8FBFF36F8FC4
:104C9000FFF7D4F93846BDE8F08700005000002047
:104CA0003008002004ED00E010B586B0FEF792FD5C
:104CB000114C2068B8B100200390049005AA04A903
:104CC00003A8FFF75DF9DDE9032102208DE8070065
:104CD00000230AA10B48059AFFF769FE606010B136
:104CE00006B0012010BD502080F31188BFF34F8F14
:104CF000BFF36F8FFEE700008C000020546D722020
:104D000053766300AD3D00082DE9FF411E46134672
:104D100002000A9D4FF0000016D0144C2768002FA7
:104D20000FD0CDE900130292062917DAFFF76AFEC9
:104D300002284FF000030FD0002269462068FFF7D9
:104D400023FC04B0BDE8F081502080F31188BFF34C
:104D50004F8FBFF36F8FFEE72A46EEE70023324600
:104D600069463846FFF7C0FCEBE700008C000020E6
:104D7000804F00080000000000000000000000005C
:104D80000000000000020000180000000000000009
:104D9000000000008C4F0008000000000000000030
:104DA00000000000000000000002000018000000E9
:104DB0000000000000000000B84F000800000000E4
:104DC00000000000000000000000000000020000E1
:104DD0001900000000000000000000009C4F0008C7
:104DE00000000000000000000000000000000000C3
:104DF000000200001A000000000000000000000097
:104E0000A84F0008000000000000000000000000A3
:104E10000000000000020000300000000000000060
:104E200000000000C84F0008000000000000000063
:104E3000000000000000000000020000310000003F
:104E40000000000000000000000000000000000062
:104E50000102030406070809000000000102030420
:104E60004C5555555555A53F7751C1166CC156BF88
:104E70009015CB19A001FA3EAD529C804F7E92BE98
:104E8000C4B1B4BD9EEE213ED43888BEE9FAA8BDB7
:104E900000004054FB21F93F3163621A61B4D03DF8
:104EA0000000601A61B4D03D7370032E8A19A33BD1
:104EB0000000002E8A19A33BC14920259A837B3923
:104EC00000000000000000006E83F9A22915444E86
:104ED000D15727FCC0DD34F5999562DB4190433C06
:104EE000AB6351FE61C5BBDE3A6E24B7E0D24D42E2
:104EF000EA2E49061C92D1091CEB1DFE3EA729B1E2
:104F0000F53582E88444BB2E26709CE9417E5FB46F
:104F100039D69139F43953838B5F849C3B28F9BD92
:104F2000FF97F81F0F9805DE8B112FEF1F6D0A5AA0
:104F3000CF7E366DB709CB27663F464F2DEA5F9E81
:104F4000C7BA27757BF1E5EBF739073DEA92528A3C
:104F5000B15FFB6B085D8D1FA6F810111111813F29
:104F6000D561C119A0012ABF7DFEB157E31DC73E1F
:104F7000EB9C2B8AE6E55ABE7CD5CF5A3AD9E53D63
:104F800064656661756C745461736B006D6F7665F2
:104F90005F626173655F7461736B00004175746F6C
:104FA0005F7461736B000000646174615F757064AD
:104FB0006174655F74617300526F626F745F7374C4
:104FC0006174655F746173006D6F746F725F636F9E
:104FD0006E74726F6C5F7400F84F00080000002060
:104FE000D4000000F0340008CC500008D4000020A9
:104FF0006C4F0000003500080000000000000000B9
:1050000000000000000000000000000000000000A0
:105010000000000008000000000000000000000088
:105020000000000000000000000000000000000080
:10503000000000000000000001000000100000005F
:10504000000000000024F400000000000000000048
:105050000000000000000000000000000000000050
:105060000000000000000000000000000000000040
:105070000000000000000000000000000000000030
:105080000000000000000000000000000000000020
:105090000000000000000000000000000000000010
:1050A0000000000000000000000000000000000000
:1050B00000000000000000000000000000000000F0
:0C50C000AAAAAAAA00000000000000003C
:040000050800018965
:00000001FF
