:020000040800F2
:10000000D04F00205D020008E71D0008911A00088B
:10001000E51D0008950300083D22000800000000CF
:100020000000000000000000000000009D0100082A
:10003000F903000800000000F9010008F91D00089C
:1000400077020008770200087702000877020008AC
:10005000770200087702000877020008770200089C
:10006000770200087702000877020008770200088C
:10007000770200087702000877020008770200087C
:10008000770200087702000877020008BD03000825
:1000900099030008A5030008B1030008FB0300084A
:1000A000770200087702000877020008770200084C
:1000B000B91E0008770200087702000877020008DE
:1000C000770200087702000877020008770200082C
:1000D0007702000831220008770200087702000842
:1000E000770200087702000877020008770200080C
:1000F00077020008770200087702000877020008FC
:1001000077020008770200087702000877020008EB
:10011000F91F00087702000877020008770200083C
:1001200077020008770200087702000877020008CB
:10013000770200087702000877020008ED03000844
:10014000C9030008D5030008E1030008770200088E
:10015000770200087702000877020008770200089B
:10016000770200087702000877020008770200088B
:1001700077020008770200087702000800000000FC
:100180007702000877020008DFF80CD000F0ECF8E6
:100190000048004785220008D04F00202C4B1968EA
:1001A0000868B0E8F04F80F30988BFF36F8F4FF015
:1001B000000080F3118870470000000008480068C4
:1001C000006880F308884FF0000080F3148862B65E
:1001D00061B6BFF34F8FBFF36F8F00DF00BF00BF6B
:1001E00008ED00E0DFF80C00016841F470010160E7
:1001F000704700BF88ED00E0EFF30980BFF36F8F19
:10020000134B1A681EF0100F08BF20ED108A20E96A
:10021000F04F106009B44FF0500080F31188BFF325
:100220004F8FBFF36F8F02F009FF4FF0000080F394
:10023000118809BC19680868B0E8F04F1EF0100F6B
:1002400008BFB0EC108A80F30988BFF36F8F704746
:100250002C000020EFF3058070470000064880471F
:1002600006480047FEE7FEE7FEE7FEE7FEE7FEE79B
:10027000FEE7FEE7FEE7FEE7A91E00088901000889
:100280002DE9F05F0546002092469B4688460646CB
:10029000814640241BE0284641464746224600F05E
:1002A00053F853465A46C01A914110D31146184686
:1002B000224600F03AF82D1A67EB01084F46224615
:1002C0000120002100F031F817EB00094E41201EFB
:1002D000A4F10104DFDC484631462A464346BDE826
:1002E000F09F40EA01039B0703D009E008C9121FF1
:1002F00008C0042AFAD203E011F8013B00F8013BE0
:10030000521EF9D27047D2B201E000F8012B491E0B
:10031000FBD270470022F6E710B513460A460446A2
:100320001946FFF7F0FF204610BD202A04DB203AD3
:1003300000FA02F1002070479140C2F1200320FA38
:1003400003F3194390407047202A04DB203A21FA36
:1003500002F00021704721FA02F3D040C2F12002DE
:100360009140084319467047064C074D06E0E06887
:1003700040F0010394E8070098471034AC42F6D3EC
:10038000FFF706FFE03B0008003C0008012001F0F9
:10039000A0FFFBE7FEE70000014800F034B80000D2
:1003A000CC000020014800F02EB80000CC00002056
:1003B000014800F028B80000CC000020014800F0FF
:1003C00022B80000CC000020014800F01CB800005A
:1003D000F4000020014800F016B80000F4000020EE
:1003E000014800F010B80000F4000020014800F0BF
:1003F0000AB80000F40000207047802000F0A6BA80
:1004000072B6FEE770472DE9F05F054600680024EC
:100410004669D0F804908768D0F80CB0D0F810A0E6
:10042000D0F81880F10748D0F90714D00121816075
:10043000B80703D5284600F027FA0CE0780702D564
:100440004FF4006407E0380702D54FF4805402E00F
:10045000284600F018FAF80516D529684FF4807080
:100460008860B80503D5284600F010FA0CE078053E
:1004700002D544F4005407E0380502D544F4804422
:1004800002E0284600F001FAF80316D529684FF477
:1004900080308860B80303D5284600F0F9F90CE0F5
:1004A000780302D544F4004407E0380302D544F44D
:1004B000803402E0284600F0EAF9300707D55FEA09
:1004C000CB6004D52968102044F40074C86070071C
:1004D0004FF0080707D55FEA0B7004D52868C7609E
:1004E000284600F0CBF9B00706D52868C068800719
:1004F00002D0284600F0C3F9700607D55FEACA604B
:1005000004D52968102044F480640861B00607D53A
:100510005FEA0A7004D528680761284600F0B0F940
:10052000F00606D528680069800702D0284600F04A
:10053000A8F9B00308D55FEAC96005D5296810207D
:100540004860284600F09EF9F00307D55FEA09707D
:1005500004D528684760284600F09BF9300446D54A
:100560005FEA497040D5F00504D55FEAC87001D054
:1005700044F00104B00504D55FEA887001D544F069
:100580000204700504D55FEA487001D544F0040404
:10059000300529D518F0700F26D008F070004028DB
:1005A00015D006DC102809D020280AD0302816D112
:1005B0000AE050280ED0602811D10EE044F0080463
:1005C0000DE044F010040AE044F0200407E044F099
:1005D000400404E044F0800401E044F4807428689E
:1005E000816921F070018161296804204860002C34
:1005F00005D0686A204368622846FFF703FFBDE81C
:10060000F09F70B5040003D094F8200010B104E00E
:10061000012070BD204600F081F82068016841F09B
:100620000101016000F096FA0546052604E000F09D
:1006300091FA401B0A2811D820684068C007F6D0FC
:100640002068016821F00201016000F083FA05468C
:100650000BE000F07FFA401B0A2806D9606A40F4DC
:100660000030606284F82060D2E72068406880072C
:10067000EFD4207E0128206801683DD021F0800160
:100680000160607E01282068016838D021F04001B7
:100690000160A07E01282068016833D021F020018C
:1006A0000160E07E0128206801682ED041F0100131
:1006B0000160207F01282068016829D021F008010D
:1006C0000160607F01282068016824D021F00401C6
:1006D0000160D4E902010843D4E90412114308433C
:1006E0006168491E08432168C861002060620120DA
:1006F00084F82000002070BD41F08001C0E741F087
:100700004001C5E741F02001CAE721F01001CFE721
:1007100041F00801D4E741F00401D9E7F0B587B012
:10072000044614216846FFF7F5FD4F4B4F48DFF8AC
:1007300034E11968D4F800C04C4A02250326092781
:1007400010300024491CF4453CD11960012907D11F
:10075000016841F000710160006800F000700590D0
:10076000106840F001001060106802AB00F001005A
:1007700005904FF4C050CDE9000583E8D0006946EC
:100780003B4800F0EFF800220521132000F08AFA20
:10079000132000F079FA00220521142000F082FADB
:1007A000142000F071FA00220521152000F07AFAD9
:1007B000152000F069FA00220521162000F072FAD7
:1007C00016204BE0DFF8ACE0F44549D1D0F800C08A
:1007D0004CF0806CC0F800C0D0F800C001290CF0CB
:1007E000806CCDF814C0196007D1016841F0007128
:1007F0000160006800F000700590106840F0020091
:100800001060106802AB00F0020005904FF44050F9
:10081000CDE9000583E8D0006946174800F0A2F84A
:10082000002205213F2000F03DFA3F2000F02CFA85
:1008300000220521402000F035FA402000F024FA83
:1008400000220521412000F02DFA412000F01CFA81
:1008500000220521422000F025FA422000F014FA7F
:1008600007B0F0BD0064004018000020303802409E
:1008700000000240006800400004024070477047DA
:1008800070477047704770477047704770477047B0
:10089000704770472DE9F0410446876D00F05AF922
:1008A000064694F835000025022806D080206065B1
:1008B00084F834500120BDE8F0812068016821F0FF
:1008C000160101602068416921F080014161206CBE
:1008D00008B9A06C20B12068016821F0080101600E
:1008E0002068016821F0010101600CE000F032F99C
:1008F000801B052807D920206065032084F8350077
:1009000084F83450D7E720680068C007EED194F827
:100910005C103F208840B860012084F8350084F8DE
:1009200034500020C7E790F83510022903D0802109
:10093000416501207047052180F835100068016885
:1009400021F001010160002070477047044910B593
:100950000A68024202D00860FFF7F7FF10BD0000EE
:10096000143C01402DE9F84FDFF8BCA1002201251D
:100970000AF1040B03264FF00F090BF1040E00BF20
:100980000B6805FA02F42340A34270D10F7907F0F7
:100990000307012F01D0022F16D187684FEA4208C2
:1009A00006FA08FC27EA0C07D1F80CC00CFA08FC80
:1009B0004CEA070CC0F808C04768A7430C79C4F399
:1009C000001494403C4344600C79E443A4070AD0EB
:1009D000C4684FEA420C06FA0CF7BC438F6807FA6A
:1009E0000CF72743C7600C7904F00304022C12D1E2
:1009F000D40800EB840CDCF820405707FF0E09FAFE
:100A000007F824EA0804D1F8108008FA07F848EA41
:100A10000408CCF8208004684FEA420C06FA0CF770
:100A2000BC430F7907F0030707FA0CF72743076069
:100A30004C6814F4403F70D03C4C276847F4804722
:100A40002760246822F0030704F480440094384CA3
:100A500007EB040CDCF8084897074FEA177809FA07
:100A600008F7BC43334FB84202D1002724E054E0DA
:100A7000314FB84201D101271EE0304FB84201D1B9
:100A8000022719E02E4FB84201D1032714E02D4F61
:100A9000B84201D104270FE02B4FB84201D10527FE
:100AA0000AE02A4FB84201D1062705E0284FB84294
:100AB00001D1072700E0082707FA08F72743CCF8F9
:100AC0000878DAF800405746D1F804C09C435FEA42
:100AD000CC3C00D51C433C60DBF800405F46D1F8BD
:100AE00004C09C435FEA8C3C00D51C433C60DEF8AC
:100AF00000407746D1F804C09C435FEACC2C00D577
:100B00001C433C60084F0C373C68D1F804C09C4340
:100B10005FEA8C2C00D51C433C60521C102AFFF469
:100B20002FAFBDE8F88F0000003C01404438024080
:100B30000030014000000240000402400008024072
:100B4000000C024000100240001402400018024055
:100B5000001C024001488068704700001C00002013
:100B600070B5040004D094F83D00002510B106E0F3
:100B7000012070BD84F83C50204600F095FE2420F2
:100B800084F83D002068C16821F40051C16020460E
:100B900001F0C8FA2068016921F4904101612068E0
:100BA000416921F0220141612068416941F0080159
:100BB00041612068C16841F40051C1602564202072
:100BC00084F83D0084F83E00002070BD0248816832
:100BD00002781144816070471C0000200B4810B55A
:100BE000016841F400710160016841F480610160B5
:100BF000016841F480710160032000F073F80F2058
:100C000000F006F800F024F8002010BD003C02407F
:100C100070B50D4D04464FF47A712878B1FBF0F0B1
:100C20000A490968B1FBF0F000F010FB48B9102C3C
:100C300007D200222146501E00F034F800206C60DC
:100C400070BD012070BD00001C00002028000020A5
:100C50000C4882B0016841F480410160006800F4F2
:100C6000804000900748001F016841F080510160FA
:100C70000068002200F0805000900F21901E02B00A
:100C800000F010B844380240002809DB00F01F02D1
:100C9000012191404009800000F1E020C0F80011DE
:100CA00070470000F0B40E4B1B680C46C3F30223E0
:100CB000C3F10705042D00D90425191D072901D208
:100CC000002300E0DB1E012606FA05F1491E214043
:100CD00099409E40761E16403143F0BC01F0AFBAF9
:100CE0000CED00E0064900F0070208684FF6FF032C
:100CF000184040EA0220034A104308607047000091
:100D00000CED00E00000FA052DE9F0470E46050065
:100D100065D0DFF81481D8F80000F7B200F00700C2
:100D2000B04207D288F80070D8F8000000F0070041
:100D3000B04254D128683D4C810712D5400703D5F5
:100D4000206840F4E05020602878000703D5206830
:100D500040F4604020602068A96820F0F00008435B
:100D600020602878C0072DD03049686808390128EC
:100D700012D0022813D0032811D00968890700294E
:100D80002DDA216821F0030101432160FFF7E2FE23
:100D9000814641F2883A0EE009688903EFE7096865
:100DA0008901ECE7FFF7D6FEA0EB0901514502D916
:100DB0000320BDE8F0872068696800F00C00B0EB04
:100DC000810FEFD1D8F80010404601F00701B14281
:100DD00007D90770006800F00700B04201D0012079
:100DE000E7E72878400705D52068E96820F4E05057
:100DF000084320602878000706D52068296920F478
:100E0000604040EAC100206000F038F82168084ADC
:100E1000C1F30311515CC8400649086006480068E8
:100E2000FFF7F6FE0020C4E7003C0240083802400D
:100E3000703B0008280000202000002004480549DD
:100E400000680968044AC1F38221515CC8407047B8
:100E50002800002008380240803B0008044805496B
:100E600000680968044AC1F34231515CC8407047C8
:100E70002800002008380240803B0008154810B5C3
:100E8000006810F00C02144813D01449042A0FD043
:100E9000082A0ED10F4C241F2268236802F03F025B
:100EA0005B0207D52068C0F38810A0FB010106E0B3
:100EB000084610BD2168C1F38811A1FB0001002381
:100EC000FFF7DEF92168C1F30141491C4900B0FB7D
:100ED000F1F010BD083802400024F40040787D0194
:100EE0002DE9F84F04006ED02078DFF84C93C0074E
:100EF000A9F104054AD009F104000168C1F3810198
:100F0000012908D00068C0F3810002280AD1D9F86D
:100F10000000400206D52868800337D560680028A5
:100F2000E1D033E06068B0F5803F10D0B0F5A02F7D
:100F3000286810D020F480302860286820F48020B1
:100F400028606068A8B1FFF705FE06460DE0286836
:100F500040F48030F4E740F480202860F7E700BFD9
:100F6000FFF7F8FD801B642873D828688003F7D545
:100F70000CE0FFF7EFFD064605E000BFFFF7EAFDD6
:100F8000801B6428F0D828688003F7D42078DFF825
:100F9000AC8280074FF0000A3ED5A748001D0168CB
:100FA00011F00C0F08D00068C0F3810002280BD1AB
:100FB000D9F80000400207D42868800716D5E068F9
:100FC000012800D112E033E1E068B8B10120C8F88F
:100FD0000000FFF7BFFD064605E000BFFFF7BAFDC2
:100FE000801B0228C0D828688007F7D528682169A7
:100FF00020F0F80040EAC10028600DE0C8F800A029
:10100000FFF7A8FD064604E0FFF7A4FD801B0228B9
:101010001FD828688007F7D42078000722D5864F8C
:1010200087486169703771B101210160FFF792FD56
:10103000064604E0FFF78EFD801B022809D83868B9
:101040008007F7D50EE0C0F800A0FFF783FD064645
:1010500005E082E0FFF77EFD801B02287DD838681E
:101060008007F7D42078400768D5DFF8CCB1002797
:101070000BF13C0BDBF80000C0000BD4DBF80010D8
:1010800041F08051CBF80010DBF80000012700F0A0
:10109000805000906B4E3068C00510D4306840F42A
:1010A00080703060FFF756FD009005E0FFF752FDBD
:1010B0000099401A022850D83068C005F6D55E4E17
:1010C000A0686C3601280FD00528306810D020F0B9
:1010D00001003060306820F004003060A068B8B1D2
:1010E000FFF738FD00900FE0306840F00100F4E7B2
:1010F00040F004003060F7E7FFF72CFD0099411A3B
:1011000041F28830814266D830688007F4D50EE01D
:10111000FFF720FD009007E0FFF71CFD0099411A42
:1011200041F28830814256D830688007F4D42FB11C
:10113000DBF8001021F08051CBF80010A069C8B393
:101140003D49091D0968C1F3810102294AD00228DD
:10115000504607D0C8F8600000E03CE0FFF7FAFC1A
:1011600004463BE04746C8F86000FFF7F3FC06463C
:1011700005E000BFFFF7EEFC801B02282BD8286893
:101180008001F7D4D4E907010843A16A2E4A49082F
:1011900002EB0141626A41EA8211084394F82C1083
:1011A00040EA0161C9F8001001203866FFF7D2FC5F
:1011B000044606E03EE000BFFFF7CCFC001B02281F
:1011C00009D828688001F7D534E000BFFFF7C2FCDA
:1011D000001B022802D90320BDE8F88F286880018F
:1011E000F4D427E00128F7D0D9F80000E26900F430
:1011F000800191421CD1226A00F03F01914217D137
:1012000047F6C071626A0140B1EB821F10D1A26A39
:101210004FF0FF3300F4403103EB5202B1EB024FC9
:1012200006D194F82C1000F07060B0EB016F01D083
:101230000120D1E70020CFE70438024000004742F8
:10124000800E4742007000400000FFFF10B5401EB6
:10125000B0F1807F01D3012010BD4FF0E024606128
:101260000F21601700F0EBFF0020A0610720206134
:10127000002010BD7047704770B590F83C20012ADF
:1012800032D0012480F83C40022280F83D200368DF
:101290005A689D6822F070060A6832435A60134B00
:1012A00002689A4214D0B2F1804F11D0104B9A428A
:1012B0000ED0104B9A420BD00F4B9A4208D00F4BD6
:1012C0009A4205D00E4B9A4202D00E4B9A4204D15C
:1012D000496825F080031943916080F83D40002162
:1012E00080F83C10084670BD022070BD000001402F
:1012F0000004004000080040000C004000040140D1
:10130000004001400018004010B5040003D094F8DC
:101310003D0010B107E0012010BD002084F83C0022
:10132000204600F01FF8022084F83D00211D2068AF
:1013300000F0C8FD012084F8460084F83E0084F8DF
:101340003F0084F8400084F8410084F8420084F8AB
:10135000430084F8440084F8450084F83D000020F0
:1013600010BD000008B50068B0F1804F12D10A48E6
:10137000016841F0010101600068002200F00100F5
:10138000009005211C20FFF78DFCBDE808401C20C3
:10139000FFF77ABC08BD00004038024070B5044633
:1013A00090F83C000025012817D0012684F83C6005
:1013B000022084F83D002068826822F0770222F43F
:1013C0007F4282600868502838D00DDC20284FD03A
:1013D00005DC90B3102811D14AE0022070BD3028FE
:1013E00046D040280AD13BE060282FD070280DD08D
:1013F000B0F5805F03D0B0F5005F12D0012584F80E
:101400003D60002084F83C00284670BDCB68D1E9DF
:101410000121206800F0BAFD2068816841F0770161
:1014200009E0CB68D1E90121206800F0AFFD206818
:10143000816841F480418160E1E719E0CA68496848
:10144000206800F0B5FD5021206806E0CA684968B0
:10145000206800F0BEFD6021206800F0A1FDCEE70D
:10146000CA684968206800F0A3FD40212068F4E7BD
:10147000226801461046F0E7704770B504460068E0
:1014800001694FF00005C943890715D4C168C943F4
:10149000890711D4E91E0161012020772068806945
:1014A0008007204602D0FFF7E7FF04E000F098F83D
:1014B000204600F096F8257720680169C94349075E
:1014C00017D4C168C943490713D46FF004010161FF
:1014D000022020772068806910F4407F204602D0E7
:1014E000FFF7CAFF04E000F07BF8204600F079F82F
:1014F000257720680169C943090716D4C168C94323
:10150000090712D46FF008010161042020772068D8
:10151000C0698007204602D0FFF7AEFF04E000F06C
:101520005FF8204600F05DF8257720680169C9431F
:10153000C90617D4C168C943C90613D46FF0100196
:101540000161082020772068C06910F4407F2046A0
:1015500002D0FFF791FF04E000F042F8204600F0CF
:1015600040F8257720680169C943C90708D1C168D7
:10157000C943C90704D1891E0161204600F032F831
:1015800020680169C943090609D4C168C94309062D
:1015900005D46FF0800101612046FFF76BFE2068E3
:1015A0000169C943490609D4C168C943490605D43C
:1015B0006FF040010161204600F03EF820680169AB
:1015C000C94389060BD4C168C943890607D46FF0A3
:1015D000200101612046BDE87040FFF74CBE70BDA0
:1015E000704770470068B0F1804F21D11149886879
:1015F000C860401C88608888401C82B28A8001F1E3
:101600001800642A12D300228A8043885B1C9BB294
:1016100043803C2B0AD3428083885B1C9BB283802F
:101620003C2B03D38280C288521CC28089880180EF
:1016300070470000AC000020704770477047000002
:10164000F8B5016804460868CA684B6910F00F0FC6
:101650004FF000055AD003F0010602F490773743AB
:1016600065D0C10705D0D10503D5216C41F001013A
:101670002164410705D5D90703D0216C41F002014F
:101680002164810705D5D90703D0216C41F00401FD
:101690002164010707D502F02001314303D0216CFA
:1016A00041F008012164216C00293BD0800604D55B
:1016B000900602D5204600F0D4FC20684069216CD9
:1016C000C0F3801001F00801014320462BD000F048
:1016D000A1FC20684069400621D52068143050E8FC
:1016E000001F21F0400140E80012002AF5D1A06B54
:1016F000A8B16C490165A06BFFF715F9002811D05E
:10170000A06B016D01B0BDE8F040084783060ED51F
:1017100093060CD52046BDE8F84000F0A2BC204658
:10172000FFF78CFFF8BDFFF789FF2564F8BD266B36
:101730002023012E79D1C60677D5D60675D508683F
:10174000486800904869400640D5A16B0868406829
:101750000004000CEAD0A28D8242E7D9E085C86976
:10176000B0F5807F2DD020680C3050E8001F21F4A8
:10177000807140E80012002AF5D12068143050E84A
:10178000001F21F0010140E80012002AF5D1206875
:10179000143050E8001F21F0400140E80012002AF8
:1017A000F5D184F83E30256320680C3050E8001FE6
:1017B00021F0100140E80012002AF5D1A06BFFF7DC
:1017C00069F8A08DE18D401A81B229E0A08DE18DEC
:1017D000401A81B2E08D0028A8D00029A6D0206848
:1017E0000C3050E8002F22F4907240E80026002EC2
:1017F000F5D12068143050E8002F22F0010240E8B3
:101800000026002EF5D184F83E30256320680C3088
:1018100050E8002F22F0100240E80023002BF5D101
:101820002046FFF70AFFF8BDFFE705062BD5150692
:1018300029D594F83D002128F5D1A068B0F5805F46
:1018400001D12069B0B1206A411C21622168007871
:101850004860E08C401E0004000CE084E3D1206866
:10186000C16821F08001C1602068C16841F0400179
:10187000C160D8E7206A0088C0F308004860206A89
:10188000801C2062E5E74006CDD55006CBD5CA685E
:10189000204622F04002CA6084F83D3000F0F7F89C
:1018A000C1E70000052000082DE9F04786B0044696
:1018B00014216846FEF72EFD6B49DFF8A8812568E4
:1018C0000023694A103901271224032667484FF084
:1018D000080C45451ED1136843F4002313601268B9
:1018E00002F4002205920A6842F001020A600968C7
:1018F000CDE9007401F00101CDE904C1CDE9027622
:101900006946FFF72FF8002205213420FFF7CAF9B6
:1019100034204AE0DFF85881DFF858A1454518D156
:10192000106840F480101060106800F4801005907A
:10193000086840F0040008600868694600F0040088
:1019400005904FF480508DE89100CDE9036C50462E
:1019500049E0DFF82481DFF81091072709F1040935
:10196000454527D1D9F8005045F01005C9F8005079
:10197000D9F8002002F0100205920A6842F0010234
:101980000A60096802AA01F0010105914FF4007193
:10199000CDE9001482E8C8006946FEF7E3FF0022A3
:1019A00005212520FFF77EF92520FFF76DF906B008
:1019B000BDE8F087DFF8C480454517D1156845F4C8
:1019C00000351560126802F4003205920A6842F090
:1019D00001020A60096801F0010105910421CDE9C5
:1019E000001469461AE0FEF7BDFFE0E7244885428F
:1019F00018D1106840F480201060106800F4802036
:101A00000590086840F0020008600868694600F028
:101A1000020005902815CDE900041A4802AD85E8BA
:101A2000C800E0E718488542C1D1D9F8002042F04B
:101A30002002C9F80020D9F8000000F0200005902D
:101A4000086840F004000860086802AA00F004007A
:101A500005904020CDE9000482E8481069465046D0
:101A6000C1E70000004C0040403802400000024046
:101A700000500040000802400010014000440040B7
:101A800000480040000402400014014070477047C5
:101A9000FEE70000104810B50E49016003214160C7
:101AA00000214FF430228160C0E903124FF4E002BC
:101AB00042610176012242768176C17601774177D3
:101AC000FEF79FFD002803D0BDE81040FEF798BC4C
:101AD00010BD000000640040CC000020104810B58C
:101AE0000E4901600321416000214FF430228160E2
:101AF000C0E903124FF4E00242610176012242760E
:101B00008176C17601774177FEF77BFD002803D00F
:101B1000BDE81040FEF774BC10BD00000068004036
:101B2000F400002010B5154A0021154800F00CFC07
:101B3000144C124A002120602432134800F004FCA7
:101B40000E4A606048320021104800F0FDFB0B4A4D
:101B5000A0606C3200210E4800F0F6FB074AE060FE
:101B6000903200210B4800F0EFFB044A2061B432B0
:101B70000021094800F0E8FB606110BD983A0008B8
:101B8000F11D000800000020CB220008E91D00081C
:101B90008D0300087D220008C322000800B587B02D
:101BA00014216846FEF7B6FB1E48016841F00401A7
:101BB0000160016801F004010591016841F0200114
:101BC0000160016801F020010591016841F0800188
:101BD0000160016801F080010591016841F0010197
:101BE0000160016801F001010591016841F0020105
:101BF00001600068694600F00200059080200090B6
:101C00004FF488100190022002900748FEF7AAFEC8
:101C1000002205211720FFF745F81720FFF734F8B9
:101C200007B000BD303802400014024010B586B045
:101C300000241748009401940294039404944FF0F4
:101C40008041059401605321C0E9011442F21071F2
:101C5000C0E9031480218161FFF756FB08B1FEF74C
:101C6000CFFB4FF48050009069460948FFF796FB80
:101C700008B1FEF7C5FB049404A905480594FFF7D5
:101C8000FBFA002801D0FEF7BBFB06B010BD000038
:101C90001C0100200C4810B50A4901604FF4E131E5
:101CA0004160002181600C22C160C0E904128161A1
:101CB000C161FEF755FF002803D0BDE81040FEF7D4
:101CC0009FBB10BD004C0040640100200C4810B5C3
:101CD0000A4901604FF4E1314160002181600C222A
:101CE000C160C0E904128161C161FEF739FF0028BB
:101CF00003D0BDE81040FEF783BB10BD005000408C
:101D0000A80100200C4810B50A4901604FF4E131E8
:101D10004160002181600C22C160C0E90412816130
:101D2000C161FEF71DFF002803D0BDE81040FEF79B
:101D300067BB10BD00100140EC0100200C4810B53D
:101D40000A4901604FF4E1314160002181600C22B9
:101D5000C160C0E904128161C161FEF701FF002882
:101D600003D0BDE81040FEF74BBB10BD004400405F
:101D7000300200200C4810B50A4901604FF4E131EF
:101D80004160002181600C22C160C0E904128161C0
:101D9000C161FEF7E5FE002803D0BDE81040FEF764
:101DA0002FBB10BD00480040740200200C4810B545
:101DB0000A4901604FF4E1314160002181600C2249
:101DC000C160C0E904128161C161FEF7C9FE00284B
:101DD00003D0BDE81040FEF713BB10BD0014014056
:101DE000B8020020FEE7FEE7012000F072FAFBE7F0
:101DF000012000F06EFAFBE710B5FEF7E7FE01F0F8
:101E000095FC012803D0BDE8104001F0C3B910BD16
:101E100030B593B030216846FEF77CFA14210CA847
:101E2000FEF778FA1E480025016841F080510160F4
:101E3000006800F0805011901A48016841F4804118
:101E400001600068022400F480401190012000909D
:101E5000000401908001CDE90640192008904FF45C
:101E6000A870CDE9090404200B906846FFF738F804
:101E700008B172B6FEE70CA90F2081E831004FF4DB
:101E8000A0500F904FF48050109005210CA8FEF741
:101E90003BFF002801D072B6FEE713B030BD000052
:101EA00040380240007000400248016841F470016F
:101EB0000160704788ED00E00148FFF7DEBA0000DE
:101EC0001C010020F0B50268254C264D264E274FF8
:101ED000274B4FF0804CA04209D0604507D0A84264
:101EE00005D0B04203D0B84201D0984204D122F0CC
:101EF000700E4A6842EA0E02A0421BD0604519D01B
:101F0000A84217D0B04215D0B84213D0984211D091
:101F1000184DA8420ED0184DA8420BD0174DA8421C
:101F200008D0174DA84205D0164DA84202D0164D34
:101F3000A84203D122F44075CA682A434D6922F0B1
:101F400080022A4302608A68C2620A688262A042F2
:101F500001D0984201D10969016301214161F0BDBD
:101F6000000001400004004000080040000C004058
:101F7000000401400040014000440140004801408D
:101F800000180040001C00400020004010B584688C
:101F900042EA032224F47F440A432243826010BDB4
:101FA000826822F070020A4342F0070181607047A4
:101FB00010B5036A046A24F001040462846924F001
:101FC000F00444EA021423F00A020A438461026224
:101FD00010BD10B5036A23F0100303628369046A1D
:101FE00023F4704343EA023224F0A00343EA0111D0
:101FF0008261016210BD00000148FFF721BB0000B3
:102000006401002010B5806B0021C185C184FFF7F9
:1020100015FB10BD01680C3151E8002F22F49072BD
:1020200041E80023002BF5D10168143151E8002F5D
:1020300022F0010241E80023002BF5D1016B0129B8
:1020400009D101680C3151E8002F22F0100241E85B
:102050000023002BF5D1202180F83E1000210163E0
:10206000704708B590F83E10222901D0022008BD23
:1020700082684FF480539A4201D1016921B1816A8B
:102080009A421BD04AB10AE00268816A5268C2F3E0
:1020900008020A80816A891C08E0026972B102683C
:1020A000526802F07F020A70816A491C8162C18D08
:1020B000491E0904090CC18503D019E00268526861
:1020C000F1E70168CA6822F02002CA600168CA68A4
:1020D00022F48072CA6001684A6922F001024A61F2
:1020E000202180F83E10016B012903D0FFF7CEFCC0
:1020F000002008BD0021016301680C3151E8002F68
:1021000022F0100241E80023002BF5D101680A6893
:10211000D20602D50A6849680091818DFFF78DFAD1
:10212000E6E7000070B5044600680169E26821F442
:102130004051114301612169A068E2690843616966
:10214000114308432168CA6849F20C639A43024369
:10215000CA6020684169A26921F44071114341615C
:1021600031492068884202D03049884202D1FEF7C6
:1021700075FE01E0FEF762FEE26900231921642585
:102180003226B2F5004F626828D0A0FB0101930F00
:102190009200FEF775F80146B0FBF5F06FF01802FB
:1021A000504301EB800006EB0010B0FBF5F000F0AF
:1021B000F002B1FBF5F002EB0012B1FBF5F06FF0AD
:1021C0001803584301EB800006EB0010B0FBF5F05C
:1021D00000F00F0021681044886070BDA0FB010171
:1021E00092185B41FEF74CF80146B0FBF5F0020196
:1021F000B1FBF5F06FF01803584301EB800006EBDC
:10220000C000B0FBF5F000F0F80002EB4002B1FBBB
:10221000F5F0584301EB800006EBC000B0FBF5F091
:1022200000F00700D6E70000001001400014014054
:102230000148FFF705BA0000EC010020FEE709079E
:10224000090E002804DB00F1E02080F8001470473C
:1022500000F00F0000F1E02080F8141D704702E04C
:1022600008C8121F08C1002AFAD170477047002021
:1022700001E001C1121F002AFBD17047012000F0CC
:1022800028F8FBE7FEF7AAFCFFF7C2FDFFF786FC84
:10229000FFF700FCFFF722FCFFF7FCFCFFF716FD41
:1022A000FFF730FDFFF74AFDFFF764FDFFF77EFD06
:1022B000FFF7BCFC00F01AF8FFF734FC00F028F838
:1022C000FEE7012000F005F8FBE7012000F001F82F
:1022D000FBE710B5EFF3058111B16FF0050403E0E2
:1022E000002408B100F0F6FD204610BDEFF3058094
:1022F00010B16FF0050070470448016811B14FF04C
:10230000FF30704701210160002070477C000020F1
:1023100010B5EFF3058010B16FF0050010BD08484F
:102320000168012902D04FF0FF3010BD054A00219D
:1023300082F8141D0221016000F034FE002010BD5F
:102340007C0000200BE000E02DE9FF410B464FF040
:102350000005EFF30581039549BB40B380271821A1
:1023600000244AB3166806B1344696691EB1314658
:10237000761E382E02D21679F60703D0002004B05C
:10238000BDE8F081566906B1B708D2F808C0BCF1C3
:10239000000F0DD0D5685C2D18D312693AB136B153
:1023A0008DE806103A46214601F095F903900DE0BC
:1023B000D6685EB912694AB903AACDE90012BAB269
:1023C000214601F05BF9012800D003950398D6E778
:1023D0002DE9F041134C0F460546E6682068001DC4
:1023E00000F044FC681C07D137B12168BDE8F0411A
:1023F0000D48091D00F08ABC20683544B54245608F
:10240000216805D2A06BBDE8F041091D00F066BC53
:10241000606B091D00F062FCA06A854200D2A562D3
:10242000BDE8F0812C000020EC0700202DE9F041F0
:10243000054600F077FC2D4CA068401CA060206889
:102440002B4F10B1606930B32BE02560A0680128E4
:1024500027D1002606EB860007EB800000F030FC59
:10246000761C382EF6D3234800F02AFC214814307D
:1024700000F026FC1F48283000F022FC1D483C30AC
:1024800000F01EFC1B48503000F01AFC1948606335
:102490001430A06305E02068E96AC06A884200D869
:1024A0002560606A401C60626864E86A216988424D
:1024B00000D9206100EB800007EB8000291D00F0AF
:1024C00025FC00F04FFC606900280CD02068E96A08
:1024D000C06A884207D208494FF080500860BFF3B5
:1024E0004F8FBFF36F8FBDE8F08100002C000020FC
:1024F0003C0300209C07002004ED00E038B500F00C
:1025000011FC104C2068C8B90F4800F0D9FB0E48E8
:10251000143000F0D5FB0C48E060143020610A4B09
:102520000020F03B009003F1500210210A2000F03F
:1025300047FE206010B105A100F096FCBDE83840D0
:1025400000F010BC68000020F0080020546D7251AB
:102550000000000030B4026C0B46002A0BD0C168AA
:102560001144C1608468A14201D30168C16030BCDC
:102570001846FDF7B6BE30BC70472DE9F041856BBB
:10258000174604460026026C82B1C7B1E068FDF729
:10259000A8FEE168206C091AE1602268914202D22B
:1025A000A168081AE060022F16D017E02068A8B9C9
:1025B000A06801F033F906460020A0600EE06068D4
:1025C000FDF78FFE216C606808446060A168884256
:1025D00004D32068606001E005B16D1E6D1CA56329
:1025E0003046BDE8F08110B5044690F8590058B166
:1025F00001280CD002280FD0502080F31188BFF39F
:102600004F8FBFF36F8FFEE7206B00F0BFFB2046BC
:10261000BDE8104000F0BABB10BD000010484FF4F8
:102620007051420706D0C01D0D4920F00700411A25
:10263000C1F570510B4A00230144C2E90003083977
:10264000183A21F0070111604B600B600B1AC0E9CA
:10265000001393604FF000405360506170470000DA
:10266000D00F002098000020144E154CA6F29C4775
:102670004FF08058DFF84C9012E000BF00F052FBA2
:10268000F068C568281D00F0F1FAA068401EA0603F
:102690006068401E606000F065FB2846FFF7A3FFFE
:1026A00060680028EAD138680128F9D9C9F80080A3
:1026B000BFF34F8FBFF36F8FF2E70000D807002002
:1026C0002C00002004ED00E070B51D46049C51B1C3
:1026D000C4F80020C4E90F010121204600F0A4FD48
:1026E00084F84C5070BD2460F4E700002DE9F05FE1
:1026F0008846DDE90B941546834691009A460A9E6A
:10270000A522206BFDF7FFFD6FF00301206B01EBAD
:102710008501084420F00707780707D0502080F390
:102720001188BFF34F8FBFF36F8FFEE70025B8F11D
:10273000000F0FD05FF00000221818F8001082F888
:10274000341018F8001011B1401C1028F4D384F88C
:10275000435001E084F83450382E00D33726E66227
:10276000C4E91365201D00F0B6FA04F1180000F06A
:10277000B2FA2461C6F138006462A061656584F82C
:10278000585052465946384600F05AFA2060B9F17E
:10279000000F01D0C9F80040BDE8F09F30B51149E5
:1027A00000E011460A688242FBD34B685C18844201
:1027B00003D1406818444860084643681C18944296
:1027C00009D1084C183C2468A24209D052681A4426
:1027D00042600A6812680260814200D0086030BD21
:1027E0000460F9E79800002070B5002441600B4DAB
:1027F0000061914206D8D11A8269914206D2011D28
:10280000286907E09A4203D2994201D3012403E0E8
:10281000011DE86800F062FA204670BD68000020E3
:1028200010B5044600F07EFAA06B28B15FF00004FA
:1028300000F098FA204610BD0124F9E730B589B0C0
:102840003C4D6EE00498002806DADDE90601059AA1
:1028500090470498002864DB069C606910B1201D35
:1028600000F004FA03A800F0D7F8024604980A28FA
:1028700057D2DFE800F00505052D334A05052D3355
:1028800094F8280040F0010084F828000599A06918
:10289000059B01442046FFF7A7FF68B3216A204645
:1028A000884794F8280040073BD500200090059801
:1028B000A169002342181946204601F0B9F8D8B999
:1028C000502080F31188BFF34F8FBFF36F8FFEE767
:1028D00014F8280F20F00100207022E094F828005E
:1028E00040F0010084F828000598A06128B1811803
:1028F00013462046FFF778FF13E0502080F311883D
:10290000BFF34F8FBFF36F8FFEE794F82800810766
:1029100003D4204600F03AFA03E020F0010084F8E6
:102920002800002204A9286800F0D2FD002889D1DF
:1029300009B030BD680000202DE9FC410F46054676
:1029400000F074FB01A800F067F80446019818B184
:1029500000F0DCFFBDE8FC81254EAFB130690068B6
:10296000D0B30027291B3A46306800F091FA00F0F6
:10297000CDFF0028EED11F494FF080500860BFF313
:102980004F8FBFF36F8FE5E7A542EBD800F0BEFF96
:10299000F0682746C068C468201D00F067F994F805
:1029A0002800410719D5A0692B4641193A4620460F
:1029B000FFF71AFFA8B100200346014600902A46FF
:1029C000204601F035F860B9502080F31188BFF33C
:1029D0004F8FBFF36F8FFEE707E020F0010084F810
:1029E0002800216A20468847B4E70127BAE700009B
:1029F0006800002004ED00E00648416B096829B139
:102A0000416BC968C9684968816270474FF0FF31FE
:102A1000FAE700002C00002070B5054600F094FE97
:102A2000064E0446B068844203D200F009F8012043
:102A300000E0002028602046B46070BD68000020DF
:102A4000F8B5194D20E0C068C4680668201D00F084
:102A50000DF9216A2046884794F82800400713D5CD
:102A6000A0693044B04206D924616060211DE86845
:102A700000F034F908E00020034601460090324699
:102A8000204600F0D5FF38B1E86801680029DAD1A6
:102A90002969C5E90310F8BD502080F31188BFF300
:102AA0004F8FBFF36F8FFEE7680000200848406833
:102AB000401C4FF0500080F3118804D0BFF34F8FBB
:102AC000BFF36F8FFEE7BFF34F8FBFF36F8FFEE74C
:102AD000A0000020074CE068016841B1C0680021F7
:102AE000D0F80000FFF728FFFFF7A8FEF3E7012169
:102AF0000020F7E7680000202DE9F041044600F0CF
:102B000011F994F9455004F1240609E0606A48B1CE
:102B1000304600F0C3FE08B100F00AFA6D1E6DB237
:102B2000002DF3DC4FF0FF3684F8456000F01AF911
:102B300000F0F8F894F9445004F1100709E0206916
:102B400048B1384600F0AAFE08B100F0F1F96D1E58
:102B50006DB2002DF3DC84F84460BDE8F04100F074
:102B600001B900002DE9F0410546002700F05EFAAA
:102B7000324E306808B9FFF751FD706905424ED1F9
:102B8000C5B3083568070ED005F00700C0F108008E
:102B90000544680707D0502080F31188BFF34F8F9A
:102BA000BFF36F8FFEE72DB37068854237D8234897
:102BB000183001460C6801E020460C466168A942C5
:102BC00002D221680029F7D131688C4227D00768EA
:102BD0002168016060680837411B10290FD960190E
:102BE000420708D0502080F31188BFF34F8FBFF306
:102BF0006F8FFEE713E041606560FFF7CFFD61680E
:102C00007068401A7060B268904200D2B06070691B
:102C100001430020C4E90001F068401CF06000F0AE
:102C200075FE780707D0502080F31188BFF34F8FCF
:102C3000BFF36F8FFEE73846BDE8F08180000020CB
:102C400010B5031F4FF080741C601B1F21F00101A1
:102C50001960191F044B0B6014390A60091F6FF0CB
:102C6000020244380A6010BDAD2A0008D0E90132E2
:102C700001699A60D0E901235A604A68824201D111
:102C800082684A60002202610868401E0860086885
:102C900070470000034B036003F15C000860802074
:102CA0001060704718090020044B036003F15C00BA
:102CB00008604FF48070106070470000740B0020B3
:102CC00000F108014FF0FF32C0E90112C16001615B
:102CD00000210160704700210161704730B50B6829
:102CE0005A1C02D000F1080202E0026904E0224608
:102CF000546825689D42FAD953684B6099608A6090
:102D0000516008610168491C016030BD42684A6039
:102D100093688B6093685960916008610168491CF1
:102D200001607047502080F31188BFF34F8FBFF3CD
:102D30006F8F0A494868401C486001280CD1084838
:102D4000006810F0FF0F07D0502080F31188BFF308
:102D50004F8FBFF36F8FFEE770470000A000002089
:102D600004ED00E00849486828B1401E486001D1E0
:102D700080F311887047502080F31188BFF34F8F84
:102D8000BFF36F8FFEE70000A000002070B50028A1
:102D90002AD0164DA0F1080460686969084207D17D
:102DA000502080F31188BFF34F8FBFF36F8FFEE782
:102DB00022683AB1502080F31188BFF34F8FBFF3E0
:102DC0006F8FFEE78843606000F030F960686968E3
:102DD000084468602046FFF7E1FC2869401C286130
:102DE000BDE8704000F092BD70BD00008000002082
:102DF0004FF0E02000210161816105494FF47A72B2
:102E00000968B1FBF2F1491E416107210161704778
:102E10002800002010B5FDF71DFA114910280ED327
:102E200000F1E02090F8F0030A78904207D2502099
:102E300080F31188BFF34F8FBFF36F8FFEE7094810
:102E40000068896800F4E060884207D9502080F368
:102E50001188BFF34F8FBFF36F8FFEE710BD0000E7
:102E6000A00000200CED00E010B5084B002200BFD0
:102E700053F832401CB1521C082AF9D310BD43F854
:102E8000321003EBC201486010BD0000FC020020BC
:102E900070B515460E460446FFF744FF94F94410FA
:102EA0000020491C01D184F8440094F94510491CC4
:102EB00001D184F84500FFF755FFA06B28B92A46D9
:102EC000314604F1240000F051F82046BDE870407E
:102ED000FFF712BE10B5020014D00F48006B38B1D6
:102EE000502080F31188BFF34F8FBFF36F8FFEE741
:102EF00000F09CF800211046FFF76AFA00F006FD8A
:102F0000002807D105494FF080500860BFF34F8F6C
:102F1000BFF36F8F10BD00002C00002004ED00E017
:102F200002490A6A0260C968416070472C000020AB
:102F300001490120C86170472C00002010B50C46E3
:102F400050B1094909681831FFF7C8FE2046BDE8AD
:102F500010400121FFF73CBA502080F31188BFF3E5
:102F60004F8FBFF36F8FFEE72C00002070B5144623
:102F70000D4668B10A4909681831FFF7C7FE0CB160
:102F80004FF0FF3521462846BDE87040FFF720BAD4
:102F9000502080F31188BFF34F8FBFF36F8FFEE790
:102FA0002C00002030B587B00024039405AA04A9A2
:102FB00003A80494FFF76EFEDDE903010094CDE958
:102FC0000110002315A11748059A00F084FB164D47
:102FD0000028E8621FD000F0FBFC012809D0401C4B
:102FE00019D1502080F31188BFF34F8FBFF36F8F3B
:102FF000FEE7502080F31188BFF34F8FBFF36F8F30
:103000004FF0FF30A86201206861EC6007B0BDE8B6
:10301000304000F045B807B030BD000049444C4591
:1030200000000000692600082C0000200248016B07
:10303000491C0163704700002C000020164810B5A1
:10304000016B11B10121C16110BD0021C161016994
:10305000124A01E0B9B1491E01EB810352F8233055
:10306000002BF7D001EB810302EB830202F108048D
:1030700053685B685360A34201D15B685360DA68B0
:103080000260016110BD502080F31188BFF34F8FA3
:10309000BFF36F8FFEE700002C0000203C030020F0
:1030A0001CB537480168374A914207D1502080F358
:1030B0001188BFF34F8FBFF36F8FFEE70068314970
:1030C000491E884207D1502080F31188BFF34F8FEB
:1030D000BFF36F8FFEE72C4908780190FF2008703E
:1030E00008788DF800009DF800009DF8002000F0A1
:1030F000F000904207D0502080F31188BFF34F8F2B
:10310000BFF36F8FFEE79DF80000204C00F05000E9
:1031100020700720A06005E09DF8002052008DF887
:103120000020401E9DF800201206F5D4A060032860
:1031300007D0502080F31188BFF34F8FBFF36F8FFC
:10314000FEE74FF44070A060019808700C482030F2
:10315000016841F470010160016841F07041016053
:10316000FFF746FE00206060FDF73CF80848016864
:1031700041F040410160FDF721F800201CBD000036
:1031800000ED00E071C20F4100E400E0A00000206B
:1031900034EF00E010B5502080F31188BFF34F8F5B
:1031A000BFF36F8F00F0D6FA18B104494FF080508A
:1031B0000860002080F3118810BD000004ED00E0DD
:1031C00038B5049D18B153B1CAB181B120E0502087
:1031D00080F31188BFF34F8FBFF36F8FFEE750204E
:1031E00080F31188BFF34F8FBFF36F8FFEE750203E
:1031F00080F31188BFF34F8FBFF36F8FFEE739B1B4
:10320000502080F31188BFF34F8FBFF36F8FFEE71D
:1032100050241C46012384F846302B460094FFF7C7
:1032200053FA204638BD000070B50D46040025D085
:10323000FFF778FDD4E90F20216802FB0011A1609F
:103240000021A163216861600A46D4E90F01401E94
:1032500000FB0121E16021464FF0FF3001F8440FEF
:10326000487004F110008DB1FFF72AFD04F124002D
:10327000FFF726FDFFF776FD012070BD502080F39B
:103280001188BFF34F8FBFF36F8FFEE721690029CD
:10329000F0D000F003FB0028ECD004494FF0805040
:1032A0000860BFF34F8FBFF36F8FE3E704ED00E0DB
:1032B0002DE9FF4782B01D468A464FF00008040002
:1032C00003D0BAF1000F08D011E0502080F311882C
:1032D000BFF34F8FBFF36F8FFEE7206C38B15020E4
:1032E00080F31188BFF34F8FBFF36F8FFEE7022D7E
:1032F0000AD1E06B012807D0502080F31188BFF37A
:103300004F8FBFF36F8FFEE700F010FA3F4F4FF083
:1033100000094FF0805648B9049838B1502080F326
:103320001188BFF34F8FBFF36F8FFEE7FFF7FAFCF3
:10333000A06BE16B884207D3022D05D00498D0B171
:10334000B8F1000F1AD01EE02A4651462046FFF77A
:1033500014F9616A19B104F1240000F09FFA20B158
:103360003E60BFF34F8FBFF36F8FFFF7FBFC012071
:1033700006B0BDE8F087FFF7F5FC22E06846FFF7EE
:10338000CFFD4FF00108FFF7EDFCFFF74FFEFFF711
:10339000C9FC94F94400401C01D184F8449094F98C
:1033A0004500401C01D184F84590FFF7DBFC04A9DF
:1033B000684600F029F930B12046FFF79DFB00F088
:1033C000A5FA0020D4E7FFF7ADFCA06BE16B8842C3
:1033D00013D1FFF7C7FC04F110000499FFF7AEFD0D
:1033E0002046FFF789FB00F091FA00289ED13E604D
:1033F000BFF34F8FBFF36F8F98E7FFF7B3FC204603
:10340000FFF77AFB00F082FA90E7000004ED00E09D
:103410002DE9F0471F4690468946040003D0B9F1D4
:10342000000F08D011E0502080F31188BFF34F8FB8
:10343000BFF36F8FFEE7206C38B1502080F3118806
:10344000BFF34F8FBFF36F8FFEE7022F0AD1E06B00
:10345000012807D0502080F31188BFF34F8FBFF3AE
:103460006F8FFEE7FFF7D6FC5020EFF3118680F355
:103470001188BFF34F8FBFF36F8FA06BE16B884252
:1034800006D3022F04D0002086F31188BDE8F08710
:1034900094F94550A06B3A4649462046FFF76DF82F
:1034A000681C04D06D1C84F845500120ECE7606A6C
:1034B0000028FAD004F1240000F0F0F90028F4D03C
:1034C000B8F1000FF1D00121C8F80010EDE70000BD
:1034D0002DE9F747002683B08A46040003D0BAF1ED
:1034E000000F08D011E0502080F31188BFF34F8FF8
:1034F000BFF36F8FFEE7206C38B1502080F3118846
:10350000BFF34F8FBFF36F8FFEE700F00FF9DFF8C7
:10351000F4804FF000094FF0805748B9059838B152
:10352000502080F31188BFF34F8FBFF36F8FFEE7FA
:10353000FFF7F8FBA56BC5B151462046FFF70AF827
:103540006D1EA563206950B104F1100000F0A6F9CA
:1035500028B1C8F80070BFF34F8FBFF36F8FFFF72C
:1035600001FC012006B0BDE8F087059808B11EB146
:1035700006E0FFF7F7FB27E06846FFF7D1FC0126DE
:10358000FFF7F0FBFFF752FDFFF7CCFB94F9440087
:10359000401C01D184F8449094F94500401C01D1AD
:1035A00084F84590FFF7DEFB05A9684600F02CF88B
:1035B000002820460AD0FFF79FFA00F0A7F920461E
:1035C000FFF72EF90028B3D00020CBE7FFF728F94A
:1035D00090B104F124000599FFF7B0FC2046FFF7F5
:1035E0008BFA00F093F90028A2D1C8F80070BFF35D
:1035F0004F8FBFF36F8F9BE72046FFF77DFA00F0F8
:1036000085F995E704ED00E02DE9F0410C46050051
:1036100011D0C4B1FFF786FB174BDA686E682068DB
:10362000911B471C17D02F681B6A9F4219D09642E6
:1036300017D8012410E0502080F31188BFF34F8F7A
:10364000BFF36F8FFEE7502080F31188BFF34F8FD9
:10365000BFF36F8FFEE70024FFF784FB2046BDE831
:10366000F081884205D9401A20602846FFF758FCAF
:10367000F1E700202060DCE72C0000202DE9FF5F4F
:103680008346DDE90E87994616468A469000FFF785
:1036900069FA05001CD05C20FFF764FA040014D01E
:1036A0000020256384F85900CDE90240CDE9008768
:1036B0004B46324651465846FFF718F82046FEF76B
:1036C000B5FE012004B0BDE8F09F2846FFF75EFB81
:1036D0004FF0FF30F6E7F0B585B0DDE90B640A9DE9
:1036E000A6B1DCB15C2700972663022684F85960F6
:1036F000002604AFCDE90246CDE90057FEF7F6FFFC
:103700002046FEF793FE049805B0F0BD502080F3EC
:103710001188BFF34F8FBFF36F8FFEE7502080F308
:103720001188BFF34F8FBFF36F8FFEE705484169E4
:1037300019B1006B18B100207047012070470220BA
:10374000704700002C0000200148C068704700004E
:103750002C0000202DE9F0412E4C0027206B28B1D1
:10376000A069401CA0613846BDE8F081E668761C7F
:10377000E66013D1606B006838B1502080F3118887
:10378000BFF34F8FBFF36F8FFEE7606BA16B616379
:10379000A063206A401C2062FFF72EF9A06ADFF8C0
:1037A0007880864209D3606B0068A0B1606BC06806
:1037B000C5686868864211D2A0622068C06A00EBC2
:1037C000800158F82100012800D90127E06900286C
:1037D000C9D00127C7E74FF0FF30EDE7281DFFF7FD
:1037E00045FAA86A18B105F11800FFF73FFAE86A30
:1037F0002169884200D9206100EB800108EB81003B
:10380000291DFFF783FAE86A2168C96A8842CAD38A
:103810000127C8E72C0000203C03002070B50400FD
:103820004FF0000133D01B4D2868844207D0502050
:1038300080F31188BFF34F8FBFF36F8FFEE7206DCA
:1038400038B1401E2065E36CE26A9A421FD040B155
:103850001DE0502080F31188BFF34F8FBFF36F8FAF
:10386000FEE7201DFFF702FAE06CE062C0F13800CD
:10387000A061E06A2969884200D92861064900EB05
:10388000800001EB8000211DFFF740FA012108466E
:1038900070BD00002C0000203C03002070B5C06803
:1038A000C46854B104F118000646FFF7DFF9144D5F
:1038B000286B50B13146134815E0502080F3118831
:1038C000BFF34F8FBFF36F8FFEE7201DFFF7CEF9D9
:1038D000E06A2969884200D928610B4900EB800021
:1038E00001EB8000211DFFF711FAE06A2968C96A1F
:1038F000884202D90120E86170BD002070BD00003F
:103900002C000020C40700203C0300202DE9F047D4
:103910002C4D00242746286B38B1FFF703FA286B9B
:10392000401E2863286B40B146E0502080F3118888
:10393000BFF34F8FBFF36F8FFEE7A968224E0120C0
:10394000D1B3A6F5916980463068E0B1F068C468EB
:1039500004F11800FFF78AF9201DFFF787F9E06AE4
:103960002969884200D9286100EB800109EB8100B8
:10397000211DFFF7CBF9E06A2968C96A8842E3D3C1
:10398000C5F81C80E0E70CB1FFF736F8AC694CB124
:103990004FEA0806FFF7DEFE00B1EE61641EF9D1C2
:1039A0000020A861E86938B1084901273807086094
:1039B000BFF34F8FBFF36F8FFFF7D4F93846BDE8E1
:1039C000F08700002C000020C407002004ED00E078
:1039D00010B586B0FEF792FD114C2068B8B10020FA
:1039E0000390049005AA04A903A8FFF75DF9DDE997
:1039F000032102208DE8070000230AA10B48059A45
:103A0000FFF769FE606010B106B0012010BD5020C4
:103A100080F31188BFF34F8FBFF36F8FFEE7000075
:103A200068000020546D722053766300D52A000888
:103A30002DE9FF411E46134602000A9D4FF000008B
:103A400016D0144C2768002F0FD0CDE90013029236
:103A5000062917DAFFF76AFE02284FF000030FD09D
:103A6000002269462068FFF723FC04B0BDE8F0811E
:103A7000502080F31188BFF34F8FBFF36F8FFEE7A5
:103A80002A46EEE70023324669463846FFF7C0FC77
:103A9000EBE7000068000020883B00080000000001
:103AA0000000000000000000000000000002000014
:103AB000180000000000000000000000943B000817
:103AC00000000000000000000000000000000000F6
:103AD00000020000180000000000000000000000CC
:103AE000C03B0008000000000000000000000000D3
:103AF00000000000000200001900000000000000AB
:103B000000000000A43B00080000000000000000CE
:103B10000000000000000000000200001A00000089
:103B20000000000000000000B03B000800000000A2
:103B30000000000000000000000000000002000083
:103B4000300000000000000000000000D03B000832
:103B50000000000000000000000000000000000065
:103B60000002000031000000000000000000000022
:103B7000000000000000000001020304060708091D
:103B8000000000000102030464656661756C7454F2
:103B900061736B006D6F76655F626173655F746101
:103BA000736B00004175746F5F7461736B0000008C
:103BB000646174615F7570646174655F74617300E2
:103BC000526F626F745F73746174655F74617300C8
:103BD0006D6F746F725F636F6E74726F6C5F740081
:103BE000003C000800000020CC0000005E2200081D
:103BF000CC3C0008CC000020044F00006E220008DE
:103C000000000000000000000000000000000000B4
:103C100000000000000000000000000001000000A3
:103C200010000000000000000024F400000000006C
:103C30000000000000000000000000000000000084
:103C40000000000000000000000000000000000074
:103C50000000000000000000000000000000000064
:103C60000000000000000000000000000000000054
:103C70000000000000000000000000000000000044
:103C80000000000000000000000000000000000034
:103C90000000000000000000000000000000000024
:103CA00000000000AAAAAAAA00000000000000006C
:103CB0000000000000000000000000000000000004
:0C3CC000000000000000000000000000F8
:040000050800018965
:00000001FF
